:10000000A811002039160000351600003516000032
:1000100000000000000000000000000000000000E0
:100020000000000000000000000000003516000085
:10003000000000000000000035160000351600002A
:100040003516000035160000351600003516000084
:100050003516000035160000351600003516000074
:100060003516000035160000351600003516000064
:100070003516000035160000351600003516000054
:100080003516000035160000351600003516000044
:100090003516000035160000351600003516000034
:1000A0003516000010B5064C2378002B07D1054B00
:1000B000002B02D0044800E000BF0123237010BDD4
:1000C0008400002000000000106F000008B5084BFD
:1000D000002B03D00748084900E000BF0748036829
:1000E000002B03D0064B002B00D0984708BDC0461C
:1000F00000000000106F000088000020106F00005A
:1001000000000000F0B5474680B482B0071C0C1C0C
:10011000151C3960081C454B9847061C444B196A4E
:10012000821C01209040021C0A431A6201A92B790B
:100130000B700D36F6B2301C3E4B9847301C3E4BD0
:100140009847287900213D4B984723681C20990740
:1001500068D423680520DA0764D4142323603C683C
:10016000201C324B98478046802369460B70002341
:100170004B7001228A70CB706869AE69002803D188
:10018000201C00212E4B98476A46107002226B46B5
:100190005A70030CD8B269462A4B9847002E04D1F6
:1001A000201C0121264B9847061C69460E7002232D
:1001B0004B70360CF0B2234B9847AB89FB80EB8930
:1001C0003B812A7C8023002A04D11F4B9B789B070C
:1001D000DB0FDB01AA68002A00D013432A7F002A24
:1001E00002D08022D20513432A6A002A00D013438A
:1001F00022681343236080235B00636040460D3018
:10020000C0B2124B98472B68FA21C90059434B1EC4
:1002100018180F4B9847431F4020FF2B02D8DBB222
:100220006381002002B004BC9046F0BD2D040000A4
:10023000000400400515000079140000550200007C
:10024000A5020000E115000000200041211500007A
:10025000393A000010B582B0041C0F4B1B78002BFC
:1002600001D000290DD001A90C700C200B4B984730
:100270000C200B4B9847084B5C7001221A70002031
:1002800007E0054B5A781D20141B621E94416442FE
:10029000204002B010BDC046A0000020051500009F
:1002A00079140000444B984233D006D8434B98420F
:1002B0000DD0434B98421BD06FE0424B98424AD03E
:1002C000414B984258D0414B984266D132E00129C7
:1002D00065D0002904D0022906D0032906D001E008
:1002E0003B4867E0002065E03A4863E03A4861E057
:1002F000012956D0002904D0022906D0032906D0AE
:1003000001E0032056E0002054E0344852E0344835
:1003100050E0012947D0002904D0022906D0032942
:1003200006D001E02F4845E0002043E02E4841E0A0
:100330002E483FE0012938D0002904D0022906D0F8
:10034000032906D001E02A4834E0002032E02948A1
:1003500030E029482EE0012929D0002904D00229C3
:1003600006D0032906D001E0244823E0002021E044
:1003700023481FE023481DE001291AD0002904D09A
:10038000022906D0032906D001E01F4812E0002010
:1003900010E01E480EE01E480CE000200AE01D4858
:1003A00008E01D4806E01D4804E01D4802E01D4825
:1003B00000E01D487047C04600100042000800429F
:1003C000000C004200180042001C004200140042D1
:1003D00003000400030006000300070003001E00E2
:1003E00003001F000300080003000A0003000B00C5
:1003F00003001000030012000300130003000C00B0
:1004000003000E0003000F00030016000300180095
:1004100003001900030005000300010003000900A8
:100420000300110003000D000300170070B586B033
:100430000C4A6B4670CA70C332CA32C3009E8642F1
:1004400006D001239A0069465258824203D100E047
:100450000023D8B203E00133062BF3D1002006B00D
:1004600070BDC0466066000010B52D200321074C0A
:10047000A0472E200321A0472A200021A0472B209F
:100480000021A0472C200021A04710BD4D070000EF
:100490000023064A1370064A1370064A1370064A70
:1004A0001370064A1370064A13707047C10000208B
:1004B000C2000020C4000020C5000020C0000020B1
:1004C000C300002008B50C4B8022D2001A608022A5
:1004D00012011A60802252011A602D20074B9847A2
:1004E000031C0120002B05D02E20044B984701232C
:1004F0005840C0B208BDC046944400418508000081
:10050000F0B557464E464546E0B42F4B9847002875
:1005100052D01E202D4B98472B4B9847002848D08F
:100520002B4F8023DB009A463B602A4E80231B0121
:100530009946336080235B01984633602D20264D19
:10054000A84701246040C0B2244B18702E20A84751
:100550006040C0B2224B1870534633604B463B603C
:10056000434633602D20A8476040C0B21D4B187031
:100570002E20A8476040C0B21B4B18705346336012
:100580004B46336043463B602D20A8476040C0B2D5
:10059000164B18702E20A8474440E0B2144B187038
:1005A000094C0A4D01E00120A847A0470028FAD1D4
:1005B00004E0104B984701E00E4B98471CBC904656
:1005C0009946A246F0BDC046C5040000F12F0000C8
:1005D000944400419844004185080000C400002074
:1005E000C2000020C3000020C5000020C100002080
:1005F000C000002091040000F0B557464E46454625
:10060000E0B42B4B984700284AD01E20294B98472E
:10061000274B9847002840D0274F8023DB009A467D
:100620003B60264E80231B019946336080235B018B
:10063000984633602D20224DA84701246040C0B267
:10064000204B18702E20A8476040C0B21E4B187077
:10065000534633604B463B60434633602D20A847EA
:100660006040C0B2194B18702E20A8476040C0B23D
:10067000174B1870534633604B46336043463B601C
:100680002D20A8476040C0B2124B18702E20A847FA
:100690004440E0B2104B187004E0104B984701E062
:1006A0000E4B98471CBC90469946A246F0BDC046EA
:1006B000C5040000F12F000094440041984400411B
:1006C00085080000C4000020C2000020C3000020F4
:1006D000C5000020C1000020C000002091040000DF
:1006E00010B51E20044B9847044CA0470028FCD1AD
:1006F0001E20014B984710BDF12F0000C5040000DB
:1007000010B51E20044B9847044CA0470028FCD08D
:100710001E20014B984710BDF12F0000C5040000BA
:1007200008B5024B9847024B984708BD01070000E7
:10073000E10600008023DB0119430302081C184373
:10074000014B18807047C046020C004010B50029CC
:100750000ED14309DB0139495A181F2108400121F4
:1007600081401160364A8018C31800221A7063E075
:10077000012910D14309DB0132495A181F210840D1
:100780000121814011602E4A8018C018027804238C
:100790001343037050E0022910D14309DB012949BA
:1007A0005A181F210840012181401160244A8018F5
:1007B000C01802780223134303703DE0052910D1CD
:1007C0004309DB011D495A181F21084001218140BE
:1007D00011601B4A8018C01802780223134303706B
:1007E0002AE0032913D14309DB01164A99181F2275
:1007F0001040012282400A6011494018C018047854
:1008000006212143017010495B181A6014E0042985
:1008100012D14309DB010B4A99181F221040012213
:1008200082400A6006494018C01804780621214316
:10083000017006495B181A6010BDC04608440041AB
:100840004044004104440041184400411444004124
:10085000002909D04309DB01084A9B181F221040D8
:10086000012282401A6008E04309DB01044A9B1818
:100870001F221040012282401A6070471844004134
:10088000144400414309DB01064A9B181B681F22E0
:10089000104001228240101C1840431E9841C0B2F3
:1008A0007047C0462044004130B50A290BD11F23B0
:1008B0000340174A9B184009C00118180378012209
:1008C0009343037023E04209D2011F230340104DDC
:1008D0005C19A41801252570C4070BD45B080D4DC5
:1008E0005B199A1813780F208343137013781943F8
:1008F00011700CE05B0807481B189B1818780F2232
:1009000002401A701A7809011143C9B2197030BD3A
:10091000404400413044004138B5051C4900674857
:10092000674B9847441EE4B2052D00D9C3E0AD00E3
:10093000644B5B599F4600200D21634B9847634BE6
:10094000196804220A431A60614B01221A60614946
:10095000614A1160614A1470614A1A6008200221DC
:10096000604CA0470A200221A0470B200221A0478B
:10097000A2E000200E21544B9847544B19680822DE
:100980000A431A60584B01221A605249574A1160B3
:10099000574A1470524A1A6010200221514CA04745
:1009A00011200221A04712200221A047132002217A
:1009B000A04781E000200F21434B9847434B196823
:1009C00010220A431A604B4B01221A6041494A4ADD
:1009D00011604A4A1470424A1A600C200221414CAC
:1009E000A0470D200221A0470F200221A04763E06D
:1009F00000201021344B9847344B196820220A43B9
:100A00001A603F4B01221A6032493E4A11603E4A49
:100A10001470334A1A6016200221324CA047172066
:100A20000221A04718200221A04719200221A04737
:100A300042E000201121244B9847244B19684022A2
:100A40000A431A60314B01221A602249304A116070
:100A5000304A1470224A1A602C200221214CA047EF
:100A60002D200221A0472E200221A0472F20022165
:100A7000A04721E000201221134B9847134B19681F
:100A800080220A431A60244B01221A601149234A2A
:100A90001160234A1470124A1A6030200221114C4E
:100AA000A04731200221A04714200221A047152091
:100AB0000221A04700E0FEE738BDC046006CDC0222
:100AC000393A000078660000350700002004004035
:100AD0000008004200220200040800420A08004206
:100AE0000E000100A9080000000C0042040C0042A6
:100AF0000A0C004200100042041000420A1000429A
:100B000000140042041400420A140042001800427B
:100B1000041800420A180042001C0042041C004253
:100B20000A1C0042002807DB0923C10FDA178342A1
:100B300051414B42184000E009207047F0B547464C
:100B400080B4051C002A12DD0C1C0131013AD2B21E
:100B500089188846074F084E281C0A21B84721707B
:100B6000281C0A21B047051C01344445F4D104BCBB
:100B70009046F0BDC13A0000393A0000F8B54F4642
:100B80004646C0B400AF0D1C141C99462022D25D0D
:100B90009046E31DDB08DB006A46D21A95466E4696
:100BA00062B26946254B984748464146244B9847D0
:100BB000062C02D9B079234B9847062D02D12E205E
:100BC000214B9847052C02D970791E4B9847052D6B
:100BD00002D12E201C4B9847042C02D93079194B96
:100BE0009847042D02D12E20174B9847032C02D989
:100BF000F078144B9847032D02D12E20124B9847C2
:100C0000022C02D9B0780F4B9847022D02D12E202A
:100C10000D4B9847012C02D970780A4B9847012D4B
:100C200002D12E20084B9847002C02D03078054B7B
:100C30009847BD460CBC90469946F8BD3D0B000058
:100C4000B92900007529000025290000F0B5002908
:100C500002DD0027C75700E00027012906DD012338
:100C6000C3569E00F3185B009C4601E000239C469F
:100C70000026022903DD0223C35664265E430025B5
:100C8000032904DD0323C356FA25AD005D43002488
:100C9000042903DD0423C3560B4C5C4300220529C1
:100CA00003DD0523C356094A5A430023062903DD01
:100CB0000623C35606494B436146C8198619751960
:100CC0002C19A218D018F0BD10270000A086010032
:100CD00040420F00F0B55F4656464D464446F0B4DC
:100CE00089B002AF041C396192469B464021C95D20
:100CF0007961131C0733DB08DB006A46D21A95467C
:100D000002ABBB6098460091396952465B46484D3C
:100D1000A8475246D2B27A6052B2201CB968454BFD
:100D20009847454B98475346013BDBB2FB6058461A
:100D30007969424B9847424B98477E69FD68414C20
:100D4000A0470028FCD0404B984740490B78002B27
:100D50000BD06AB2914643464B441878013040B2FA
:100D60003B4B98474146494408703A4B1B78002B4F
:100D70000BD06AB2914643464B441878013840B2D2
:100D8000334B9847414649440870334B1B78002B3E
:100D900003D1324B1B78002B23D02F4B1B78002B19
:100DA00001D0013DEDB22D4B1B78002B01D0013558
:100DB000EDB26BB25246013A934202DC002B02DBE9
:100DC00002E0002500E0FD687A69161C5644761B97
:100DD000F6B2731EDBB252443969521A934200DAFA
:100DE0001E1C1F4B1B78002B05D07A6851B2B868C7
:100DF0001C4B984713E01C4B1B78002B0DD1584619
:100E0000311C0E4B994698476BB24146C85C174B54
:100E100098475846311CC84792E701204042BD46DA
:100E200007B03CBC90469946A246AB46F0BDC046D2
:100E30007D0B00003D0B0000252B0000B9290000B0
:100E4000E1060000C504000001050000C400002008
:100E5000250B0000C5000020C0000020C2000020BB
:100E6000C30000204D0C0000C100002075290000C7
:100E70007047C0460C4B1B68002B10D1EFF310835A
:100E8000002B09D172B6BFF35F8F0022074B1A7097
:100E90000122074B1A7002E00022054B1A70024B28
:100EA0001A6801321A607047A40000200000002078
:100EB000A8000020084B1A68013A1A601B68002B32
:100EC00009D1064B1B78002B05D00122044B1A7068
:100ED000BFF35F8F62B67047A4000020A800002017
:100EE0000000002008B507282BD88000174B1B589E
:100EF0009F468020000227E0154BD86824E0154B60
:100F0000186A8005800F144BC340181C1CE0104B5E
:100F1000186919E00E4B1B680220184014D00D49C7
:100F20001022CB681A42FCD0094B1B685A070AD51D
:100F300000200A4B9847064B9B681B041B0C584328
:100F400002E0002000E0064808BDC04690660000B0
:100F5000AC0000200008004000127A0021150000BB
:100F6000006CDC0270B50C4B1C6A01788578407807
:100F70000122104080014026B44304432A40D0019E
:100F800080229443221C02430320014009020348AB
:100F900002400A431A6270BD00080040FFFCFFFFD8
:100FA000F0B55F4656464D464446F0B4254A948A0D
:100FB00045780378594259418A4683789C46C178DE
:100FC000884603799946467B077B817B8B46806800
:100FD0001D4B186101235146880004218C430443B2
:100FE00048461840C00008218C430443404618403E
:100FF000000110218C430443604618404001202129
:101000008C430443181C384080014027BC430443F0
:10101000181C3040C0018026B443044307202840F8
:1010200000020A4D2C40044359460B40190308485E
:10103000231C03400B4393823CBC90469946A24636
:10104000AB46F0BD00080040AC000020FFF8FFFFF9
:10105000FFEFFFFF10B5254B9B691B051B0F022BF4
:1010600009D8017A0902F82252011140827A11430B
:101070001F4A516008E0017A8906090C42899205ED
:10108000920D11431A4A5160818842881143C479F4
:101090008279224311434278D2011143144A1160EC
:1010A0000278042A21D1022B0FD8027B1206F823E2
:1010B0005B051A40C1890904FF231B040B401A4336
:1010C000038A1A430A4B9A600AE0027B9206038A5B
:1010D0001A43C3891B0407490B401A43044B9A6007
:1010E000034B196804220A431A6010BD0020004116
:1010F000AC0000200000FF0307283BD880001E4BF7
:101100001B589F46002036E01C4B196A02220A43F6
:101110001A6200202FE0194B996902220A439A6152
:10112000002028E0154B198A02220A431A82002067
:1011300021E0124B998A02220A439A8200201AE087
:101140000F4B196802220A431A601A680D4B1A40A5
:101150000A4B9A84191C1022CB681A42FCD0084A08
:101160009168064BD96251689962126892B29A846A
:10117000002000E017207047B06600000008004023
:10118000AC0000207FFF0000F0B58FB0C222D2007B
:10119000424B9A60424B5A681E218A4304210A43FB
:1011A0005A60022201AB1A7000243E4DE0B201A940
:1011B000A84701341C2CF9D10AA8002303708370BE
:1011C000802212028260C370012202710373837352
:1011D000032242704373344B98470520334B9847A2
:1011E0002E490222CB681A42FCD02C4B998A8022CD
:1011F0000A439A8205A800230025438083808571D5
:10120000C571072202723F2343810421017045709A
:10121000274901820273C381264B984704A8457071
:10122000012686700570244B984706201F4FB8474B
:10123000224B984701AC02966570257205232370F6
:1012400066720120211C1E4B984701201D4B9847B8
:1012500026700020211C134B984700201A4B9847FA
:101260000720B8470D49D022CB681340D02BFBD1C3
:10127000164A002313725372937201A901224A6025
:101280004B700B724B7207230B7000200C4B98476E
:1012900000200C4B98470FB0F0BDC046000800403E
:1012A0000040004105150000A10F0000F9100000EA
:1012B000B905000055100000650F0000D1120000B4
:1012C000F5120000A913000079140000000400408A
:1012D000064B996908220A439A610122044B1A704D
:1012E000191C0B781342FCD17047C0460004004023
:1012F000000C0040F8B5061C071C0D782D020543B4
:101300004B78002B02D08023DB021D434B7A002B4D
:1013100002D080231B031D434C68012C17D9631E88
:101320001C420FD1022C06D90223002201325B009D
:101330009C42FBD800E000221702374380235B0366
:101340001D4304E02702374380239B021D430B7A91
:10135000002B02D080239B031D430F4A53785BB2BE
:10136000002BFBDB0D4B98470D4B1E700A4A537840
:101370005BB2002BFBDB084B9F601A1C53785BB2FF
:10138000002BFBDB044B5968802252020A401543B4
:101390005D60044B9847F8BD000C0040750E0000DE
:1013A000080C0040B50E000010B5041C0B4A537821
:1013B0005BB2002BFBDB0A4B98470A4B1C70074AB9
:1013C00053785BB2002BFBDB044B5968802252023E
:1013D0000A435A60044B984710BDC046000C0040B9
:1013E000750E0000040C0040B50E000070B5041C22
:1013F0001A4A53785BB2002BFBDB194B9847194B09
:101400001C70164A53785BB2002BFBDB134E7068DE
:10141000C004C00E144B9847051C124B1C70766814
:10142000F602F60F114B1C700C4A53785BB2002B7E
:10143000FBDB0A4B9C68240AA4B20D4B9847002E94
:1014400007D1012C07D9281C211C0A4B9847051CE1
:1014500001E00134E540281C70BDC046000C00408E
:10146000750E0000040C0040E50E0000080C004062
:10147000B50E0000393A000010B5041C064B984721
:10148000064B1C70064B59888022D2010A435A80B1
:10149000044B984710BDC046750E0000020C00407A
:1014A000000C0040B50E000010B5041C0F4B98470F
:1014B0000F4B1C700F4B58880005000F59880E4ABF
:1014C0000A405A8059880D4A0A405A80191C8022C5
:1014D000D2014B881342FCD1064B01025888064AC0
:1014E00002400A435A80064B984710BD750E000013
:1014F000020C0040000C0040FFF0FFFFFFBFFFFFA9
:10150000B50E000010B50C7824020443024B984736
:10151000A4B2024B5C8010BDA9140000000C004076
:1015200010B5041C064B9847064B1C70064B5C8894
:101530002405240F054B9847201C054B984710BDE8
:10154000750E0000020C0040000C0040B50E0000BB
:10155000ED13000030B5D378002B1ED11378802B0B
:1015600004D01B0680246402234300E00023547847
:101570000225AC430AD19478002C03D18024A40224
:10158000234302E0C024E402234341605478013C39
:10159000012C04D8114C234001E0416000230D04CC
:1015A0002D0CA024E4052C431C4384620D0CD02494
:1015B00024062C431C438462D478002C0CD15C0399
:1015C00005D59378012B01D1816100E04161537809
:1015D000013B012B00D8816030BDC046FFFFFBFFFF
:1015E00008B5031C0A1CC1090020002903D15809B1
:1015F000C001044940181F210B4001219940024BB2
:10160000984708BD00440041551500007047C0468A
:1016100008B5044B9847044B9847044B9847044B34
:10162000984708BD89110000710E00000D160000DA
:101630000D160000FEE7C04610B5194B194A9A4234
:1016400003D0194B164A9A4204D3184B184A9A42AF
:1016500010D31BE0174B14480330C01A8008013028
:10166000800000230E490F4AD458CC5004338342E3
:10167000FAD1EAE70E4B1A1D0C490331891A890881
:1016800089005218002102C39342FCD10A4B7F21EA
:101690000A4A8A439A600A4B98470A4B9847FEE7E2
:1016A00000000020106F000084000020A401002032
:1016B000840000200400002000ED00E00000000095
:1016C00015660000D1360000F0B583B0051C4068F7
:1016D000072700970021052203230D4CA0472889E6
:1016E00080B212260096002103220323A0476889B6
:1016F00080B20097002105220423A047A88980B268
:101700000096002103220423A04703B0F0BDC04689
:101710007D0B000010B582B01D4C201C1D4B98475E
:101720006068072300930021052203231A4CA04779
:10173000431C2BD0164B5860188980B2122300939B
:10174000002103220323144CA047431C1ED080B267
:101750000F4B1881588980B207230093002105227E
:1017600004230D4CA047431C10D080B2084B588175
:10177000988980B212230093002103220423064C8F
:10178000A047431C02D080B2014B988102B010BD2B
:1017900054010020C9160000D50C0000F0B54746E2
:1017A00080B484B0204F214E214B9846381C311C08
:1017B0004246204B204CA04708230093032301936B
:1017C0000E23029301200321012203231B4CA04777
:1017D000C4B21B4B9847012C0BD11A481A491B4A1B
:1017E0001B4B154DA8471B481B4B98471B4B984755
:1017F00013E0022C08D11A481349144A144B0E4C1A
:10180000A047184B9847D1E7032C06D10220164970
:10181000164B9847114B9847C8E7002CC6D104B027
:1018200004BC9046F0BDC046C4670000DC67000001
:10183000F46700000C680000FD290000513400002E
:10184000E1060000246800003C68000054680000C5
:101850006C68000054010020C91600002107000038
:1018600084680000151700009C6800003D2A0000F5
:10187000F0B583B0051C0F1C161CC08880B20E2367
:101880000093002105220323054CA047288980B23C
:10189000FAB206230093311C0423A04703B0F0BD25
:1018A0007D0B000010B582B0114C201C04210122D8
:1018B000104B9847E08880B20E2300930021052248
:1018C00003230D4CA047431C10D080B2084BD88096
:1018D000188980B206230093012104220423064CB8
:1018E000A047431C02D080B2014B188102B010BD4A
:1018F0003C01002071180000D50C0000F0B54746EF
:1019000080B484B0214F224E224B9846381C311CA3
:101910004246214B214CA047082300930323019307
:101920000E23029301200321012203231C4CA04714
:10193000C4B21C4B9847012C0DD11B481B491C4AB3
:101940001C4B164DA8471C48042101221B4B9847ED
:101950001B4B984713E0022C08D11A481349144A2C
:10196000144B0E4CA047184B9847CFE7032C06D1D9
:1019700002201649164B9847114B9847C6E7002C92
:10198000C4D104B004BC9046F0BDC046B4680000A9
:10199000CC680000F46700000C680000FD2900001E
:1019A00051340000E1060000E4680000FC6800001B
:1019B000146900002C6900003C010020711800002F
:1019C0002107000044690000A51800009C68000081
:1019D0003D2A000010B582B0124C201C04210122C7
:1019E000114B9847E08880B20E2300930021052216
:1019F00003230E4CA0470E4B1B78002B10D180B256
:101A0000084BD880188980B2062300930121042254
:101A10000423064CA047431C02D080B2014B18811E
:101A200002B010BD8401002071180000D50C000028
:101A3000C1000020F0B5474680B484B0214F224E4B
:101A4000224B9846381C311C4246214B214CA04762
:101A500008230093032301930E2302930120032103
:101A6000012203231C4CA047C4B21C4B9847012CF5
:101A70000DD11B481B491C4A1C4B164DA8471C483E
:101A8000042101221B4B98471B4B984713E0022C63
:101A900008D11A481A49144A144B0E4CA047194B46
:101AA0009847CFE7032C06D102201749174B9847D8
:101AB000114B9847C6E7002CC4D104B004BC904633
:101AC000F0BDC046B46800005C690000F467000027
:101AD0000C680000FD29000051340000E106000000
:101AE000746900008C690000146900002C69000012
:101AF00084010020711800002107000044690000E3
:101B0000FC680000D51900009C6800003D2A000018
:101B100010B582B0124C201C05210122114B9847B0
:101B2000E08880B20E2300930021052203230E4C8F
:101B3000A0470E4B1B78002B10D180B2084BD880E9
:101B4000188980B206230093012105220423064C44
:101B5000A047431C02D080B2014B188102B010BDD7
:101B60007001002071180000D50C0000C100002099
:101B7000F0B5474680B484B0214F224E224B9846A0
:101B8000381C311C4246214B214CA04708230093AE
:101B9000032301930E230293012003210122032337
:101BA0001C4CA047C4B21C4B9847012C0DD11B48BC
:101BB0001B491C4A1C4B164DA8471C4805210122F5
:101BC0001B4B98471B4B984713E0022C08D11A482F
:101BD0001349144A194B0E4CA047194B9847CFE7AD
:101BE000032C06D102201749174B9847114B9847F1
:101BF000C6E7002CC4D104B004BC9046F0BDC0467A
:101C0000B4680000A4690000F46700000C680000DC
:101C1000FD29000051340000E1060000BC6900000D
:101C2000D469000014690000EC6900007001002014
:101C30007118000021070000046A00002C690000F0
:101C4000111B00009C6800003D2A0000F0B55F46B3
:101C500056464D464446F0B485B04F4B1C89A4B25D
:101C600006230093201C0221042204234B4DA84785
:101C7000201C03A904224A4B98474A4B984704204A
:101C80000621494B9847494B984706260325484C5F
:101C9000484A9146484B9846A0470028FCD0C84780
:101CA00047463B78002B0BD06BB203AF9A46F85CEB
:101CB0000130C0B2F85440B2404B98475246B85435
:101CC0003F4B1B78002B0BD06BB203AF9A46F85CEE
:101CD0000138C0B2F85440B2384B98475346F854D4
:101CE000384B1B78002B03D1374B1B78002B1FD0B0
:101CF000344B1B78002B01D0013DEDB2324B1B78E9
:101D0000002B01D00135EDB26BB2032B08DC002BA8
:101D10000CDBEBB20926F61AF6B2072E08DD01E05D
:101D2000002300250A26F61AF6B201E0062603254E
:101D3000264B1B78002B04D003A80421244B984782
:101D400022E0244B1B78002B1CD10420311C164FA1
:101D5000BB46B84703AA92466BB2D05C1E4B98476D
:101D6000504604211A4B984780B21C4B98470F23CA
:101D70000093002104220423084FB8470420311C9B
:101D8000D84789E70120404205B03CBC90469946BF
:101D9000A246AB46F0BDC046080100207D0B000006
:101DA0003D0B0000252B0000B9290000E1060000D2
:101DB000C504000001050000C4000020250B000040
:101DC000C5000020C0000020C2000020C300002089
:101DD0004D0C0000C100002075290000612C00009E
:101DE00030B583B0174C201C04210222164B9847B3
:101DF000208980B2154B98470F23009300210422BD
:101E00000423134DA84704201321124B98470220A6
:101E1000114B9847E08880B20E23009300210522E1
:101E200003230E4CA047431C09D080B2054BD88039
:101E30000B4B9847431C02D080B2024B188103B071
:101E400030BDC0460801002071180000612C000060
:101E50007D0B0000B929000025290000D50C0000E9
:101E60004D1C0000F0B54F464646C0B485B02C4F1F
:101E70002C4E2D4B9946381C311C4A462B4B2C4C72
:101E8000A04708230093032301930E23029301200C
:101E9000032101220323274CA047C4B2264B9847B5
:101EA000012C22D125482649264A274B204DA847F8
:101EB000264B9846181C04210222254B984745467C
:101EC000288980B2234B98470F23009300210422D6
:101ED0000423214DA84704201321204B98470220BA
:101EE0001F4B98471F4B984713E0022C08D11E4800
:101EF0001349144A144B0E4CA0471C4B9847BAE7A1
:101F0000032C06D102201A491A4B9847154B9847C3
:101F1000B1E7002CAFD105B00CBC90469946F0BD9E
:101F2000B46800001C6A0000F46700000C68000040
:101F3000FD29000051340000E1060000346A000071
:101F4000D4690000146900004C6A000008010020F8
:101F500071180000612C00007D0B0000B929000001
:101F60002529000021070000646A0000E11D00002F
:101F70009C6800003D2A0000F0B583B00C1C151CC5
:101F80000E4B9847061C0E4B1F78FFB2691EC9B254
:101F9000201C0C4B9847002F03D02D200A4B98474C
:101FA00002E02B20084B98470095301C01210422A9
:101FB000231C064CA04703B0F0BDC046912E000084
:101FC00052010020B9290000252900007D0B0000E6
:101FD00070B582B0041C40680526009600210522D9
:101FE0000223134DA847608980B20F23009300217C
:101FF00005220223A847208980B2009602210522EB
:102000000323A847208980B204210522094EB04746
:10201000A08980B20E230093022105220323A84742
:10202000A08980B204210E22B04702B070BDC04624
:102030007D0B0000791F0000F0B55F4656464D4607
:102040004446F0B487B0041C894690460B1C01330B
:10205000DBB203930092022105224B46464DA8476E
:10206000201C04A90522454B9847454B98474846F4
:102070004146444B9847444B984746460425434CB9
:10208000434A9246A0470028FCD0D047414A1378E3
:10209000002B0BD06BB204AF9B46F85C0130C0B292
:1020A000F85440B23C4B98475B46F8543B4B1B7886
:1020B000002B0BD06BB204AF9B46F85C0138C0B26A
:1020C000F85440B2344B98475A46B854344B1B78B6
:1020D000002B03D1334B1B78002B1FD0304B1B78C8
:1020E000002B01D0013DEDB22E4B1B78002B01D00F
:1020F0000135EDB26BB2042B02DC002B02DB02E0F7
:10210000002500E0042546460536761BF6B2731E10
:10211000DBB242460332934200DA1E1C224B1B788C
:10212000002B04D004A80521204B98471DE0204B2C
:102130001B78002B17D14846311C124FB84704AB0F
:102140009B466BB25A46D05C1A4B984758460521BD
:10215000164B984780B203994246174B984748461A
:10216000311CB8478EE70120404207B03CBC904686
:102170009946A246AB46F0BD7D0B00003D0B00002A
:10218000252B0000B9290000E1060000C50400006D
:1021900001050000C4000020250B0000C500002040
:1021A000C0000020C2000020C30000204D0C000031
:1021B000C100002075290000791F000010B582B011
:1021C0001A4C201C1A4B9847606805230093002185
:1021D00005220223174CA047431C25D0134B5860FF
:1021E000188980B203210522134B9847431C1BD04A
:1021F00080B20E4B1881588980B20F2300930021C2
:10220000052202230B4CA047431C0DD080B2074B84
:102210005881988980B203210E22074B9847431CAE
:1022200002D080B2014B988102B010BDE8000020BE
:10223000D11F0000D50C000039200000F0B5574632
:102240004E464546E0B484B02E4F2F4E2F4B9A4653
:10225000381C311C52462E4B2E4CA04708230093AD
:10226000042301930E23029301200421012204235D
:10227000294CA047C4B2294B9847012C18D12848B3
:102280002849294A294B234DA8472948294B9847D3
:1022900004201321284B994698470220274DA84730
:1022A00004200A21C8470220A847254B984720E070
:1022B000022C15D123481B491B4A1C4B154CA04727
:1022C000042013211C4B9846984702201B4CA04722
:1022D00004200A21C0470220A0471B4B9847B7E7BC
:1022E000032C06D102201949194B9847144B9847E3
:1022F000AEE7002CACD104B01CBC90469946A24677
:10230000F0BDC0467C6A0000946A0000AC6A000020
:10231000F4670000FD29000051340000E1060000D0
:10232000C46A0000DC6A0000F46A00000C6B000064
:10233000E8000020D11F0000B92900002529000075
:1023400021070000246B0000BD2100009C680000F4
:102350003D2A000010B582B01A4C201C1A4B984739
:10236000606805230093002105220223174CA04733
:10237000431C25D0134B5860188980B203210522D5
:10238000134B9847431C1BD080B20E4B18815889C1
:1023900080B20F2300930021052202230B4CA0479B
:1023A000431C0DD080B2074B5881988980B203211D
:1023B0000E22074B9847431C02D080B2014B9881F4
:1023C00002B010BDCC000020D11F0000D50C0000D1
:1023D00039200000F0B557464E464546E0B484B07B
:1023E0002E4F2F4E2F4B9A46381C311C52462E4BE7
:1023F0002E4CA04708230093042301930E2302933D
:102400000120042101220423294CA047C4B2294BF6
:102410009847012C18D128482849294A294B234D8F
:10242000A8472948294B984704201321284B99464F
:1024300098470220274DA84704200A21C8470220B8
:10244000A847254B984720E0022C15D123481B496B
:102450001B4A1C4B154CA047042013211C4B9846CB
:10246000984702201B4CA04704200A21C0470220A5
:10247000A0471B4B9847B7E7032C06D10220194908
:10248000194B9847144B9847AEE7002CACD104B0D9
:102490001CBC90469946A246F0BDC0463C6B00006D
:1024A000946A0000AC6A0000F4670000FD29000097
:1024B00051340000E1060000546B0000DC6A0000AB
:1024C000F46A00000C6B0000CC000020D11F00005B
:1024D000B929000025290000210700006C6B0000CD
:1024E00055230000846B00003D2A000010B582B027
:1024F0001A4C201C1A4B9847606805230093002152
:1025000005220223174CA047431C25D0134B5860CB
:10251000188980B203210522134B9847431C1BD016
:1025200080B20E4B1881588980B20F23009300218E
:10253000052202230B4CA047431C0DD080B2074B51
:102540005881988980B203210E22074B9847431C7B
:1025500002D080B2014B988102B010BD2001002052
:10256000D11F0000D50C000039200000F0B55746FF
:102570004E464546E0B484B02E4F2F4E2F4B9A4620
:10258000381C311C52462E4B2E4CA047082300937A
:10259000042301930E23029301200421012204232A
:1025A000294CA047C4B2294B9847012C18D1284880
:1025B0002849294A294B234DA8472948294B9847A0
:1025C00004201321284B994698470220274DA847FD
:1025D00004200A21C8470220A847254B984720E03D
:1025E000022C15D123481B491B4A1C4B154CA047F4
:1025F000042013211C4B9846984702201B4CA047EF
:1026000004200A21C0470220A0471B4B9847B7E788
:10261000032C06D102201949194B9847144B9847AF
:10262000AEE7002CACD104B01CBC90469946A24643
:10263000F0BDC0469C6B0000946A0000AC6A0000CC
:10264000F4670000FD29000051340000E10600009D
:10265000B46B0000DC6A0000F46A00000C6B000040
:1026600020010020D11F0000B92900002529000009
:1026700021070000CC6B0000ED240000846B0000FB
:102680003D2A000070B5164B9847164E164D0A208D
:10269000311CA847C4B20A2C1BD8A300134AD35834
:1026A0009F46134B9847F2E7124B9847EFE7124BC0
:1026B0009847ECE7114B9847E9E7114B9847E6E755
:1026C000104B9847E3E7104B9847E0E70F4B9847CC
:1026D000DDE702200E490F4B9847002CD7D170BD83
:1026E000352B0000FC660000D1320000D0660000EF
:1026F0009D170000FD180000351A0000711B000036
:10270000651E00003D220000D52300006D2500005D
:10271000E46B00003D2A0000F0B583B0284B9847D9
:1027200000284BD0274B9847274B1B78002B45D0D0
:10273000264B1B78002B41D0254B1B78002B3DD11D
:10274000244B1B78002B39D1234B1B78002B35D120
:10275000224B1B78002B31D1214B98470120214976
:10276000214B9847214D184C1B4EA8472378002B2E
:10277000FBD13378002BF8D11A4F1D4E1D4C381C5D
:10278000311C221C231C1C4DA84708230093002049
:10279000002107220323194DA847431C0ED000280F
:1027A0000AD004201649104DA8470120154B984720
:1027B00004201049A847E2E7134B984703B0F0BD47
:1027C000C5040000F9050000C1000020C40000207D
:1027D000C2000020C5000020C0000020C30000206F
:1027E000452B0000F86B00003D2A000001050000A9
:1027F000106C00000C680000FD290000D50C0000E2
:10280000286C0000153000008526000010B58024DB
:102810006402044B1C600220034B9847034B1C606E
:1028200010BDC04698440041B92F000094440041B7
:10283000F8B54F464646C0B4814600240D4B984635
:102840000D4F0E4E4346E51828780021B8472878EA
:102850004B46234101211940B0470134042CF1D1EA
:102860000520074B9847074B98470CBC9046994664
:10287000F8BDC046C80000204D0700005108000008
:10288000B92F00000D280000F0B54F464646C0B4F1
:1028900083B06C460123E371132002211B4B984740
:1028A000802252031A4B1A6080229202194B1A603E
:1028B000E379002B1AD0184A904680246402A1467E
:1028C0004B46424613600220144FB847114E346005
:1028D000134B1B681B03DB0F6D46EB7143461C60FB
:1028E0000220B8473460EB79002BE9D10A4B8022F3
:1028F00052021A60802292021A6013200021034BB8
:10290000984703B00CBC90469946F0BD4D070000B7
:10291000144400419844004194440041B92F000000
:102920002044004138B5051C80225203064B1A6032
:1029300080229202054B1A600009054CA047281C12
:10294000A047044B984738BD1844004194440041C7
:10295000312800008928000038B5041C00780028C0
:1029600005D0034D0134A84720780028FAD138BD9E
:102970002529000008B53030C0B2014B984708BD8A
:102980002529000038B5051C80225203064B1A6029
:1029900080229202054B1A600009054CA047281CB2
:1029A000A047044B984738BD14440041944400416B
:1029B000312800008928000008B502280DD002D86F
:1029C000012805D017E003280CD004280FD012E00E
:1029D0007F31C8B2084B98470DE04139C8B2064B69
:1029E000984708E06D39C8B2034B984703E02D398A
:1029F000C8B2014B984708BD85290000F0B547468D
:102A000080B4041C8846171C1E1C8020094DA84752
:102A1000201C094CA047C020A8474046A04794204E
:102A2000A847381CA047D420A847301CA04704BCA6
:102A30009046F0BD852900005929000038B50C1CCE
:102A400002280CD002D8012805D00BE003280DD0B5
:102A500004280FD006E080200C4B984702E0C020ED
:102A60000A4B98472078002808D10DE09420074BA6
:102A70009847F7E7D420054B9847F3E7044D013416
:102A8000A84720780028FAD138BDC0468529000023
:102A90002529000070B50E1C07280CD80830C0008E
:102AA000C0B2054B9847341C0836044D2078A8471F
:102AB0000134B442FAD170BD8529000025290000F7
:102AC000F8B58020134DA847FF20134CA047134FA3
:102AD000381C134EB0479320A847FF20A047D420AE
:102AE000A847FF20A047381CB047E720A847FF2091
:102AF000A047C020A8470020A047D320A847002017
:102B0000A0479420A8470020A047A720A84700205E
:102B1000A047F8BD8529000025290000406C000071
:102B20005929000008B50E20014B984708BDC04642
:102B30008529000008B50C20014B984708BDC04608
:102B40008529000010B50120024CA0478020A04735
:102B500010BDC0468529000008B51320024B9847D8
:102B6000024B984708BDC04685290000892800000F
:102B700008B51720024B9847024B984708BDC0463E
:102B80008529000089280000F8B5302000212B4C51
:102B9000A0472B4D80235B022B6010200021A04713
:102BA00011200021A04712200021A047132000215E
:102BB000A04714200021A04731200021A047214B2D
:102BC00010221A7011225A7012229A701322DA708F
:102BD000802252031C4B1A6080239B022B606420CE
:102BE0001A4EB04708201A4DA8471A4CA047032098
:102BF000194FB8476420B0470320B8476420B04756
:102C00000320B8476420B0470220B8476420B0478B
:102C10002820A847A0470820A847A0470620A84783
:102C2000A0470E20A847A0470120A847A047802022
:102C3000A847A047094B9847F8BDC0464D0700007C
:102C400094440041C800002014440041F12F0000CA
:102C5000852900008928000031280000712B000020
:102C6000F8B5830018184000714B9847041C71494F
:102C7000714B984700284CD0704D201C7049A847D4
:102C80007049714B9847071C201C7049A847211CAC
:102C9000A847011C6E4E381CB047071C201C6D490C
:102CA000A847211CA847211CA847011C381CB04775
:102CB000071C201C6849A847211CA847211CA847BD
:102CC000211CA847011C381CB047071C201C634965
:102CD000A847211CA847211CA847211CA847211C44
:102CE000A847011C381CB047071C201C5C49A8479A
:102CF000211CA847211CA847211CA847211CA84724
:102D0000211CA847011C381CB047FC218905B0478D
:102D100089E04A4D201C5349A8474D4E0021B04739
:102D2000071C201C5049A847211CA847011C381C1F
:102D3000B047071C201C4D49A847211CA847211C4F
:102D4000A847011C381CB047071C201C4849A8474D
:102D5000211CA847211CA847211CA847011C381C7E
:102D6000B047071C201C4349A847211CA847211C29
:102D7000A847211CA847211CA847011C381CB047A4
:102D8000071C201C3C49A847211CA847211CA84718
:102D9000211CA847211CA847211CA847011C381C3E
:102DA000B047071C201C3549A847211CA847211CF7
:102DB000A847211CA847211CA847211CA847211C63
:102DC000A847011C381CB047071C201C2C49A847E9
:102DD000211CA847211CA847211CA847211CA84743
:102DE000211CA847211CA847211CA847011C381CEE
:102DF000B047071C201C2349A847211CA847211CB9
:102E0000A847211CA847211CA847211CA847211C12
:102E1000A847211CA847211CA847011C381CB04703
:102E2000FC218905B047184B984780B2F8BDC046D1
:102E3000194800000040A146B53B0000994200003F
:102E40008CD8453D49CE0343ED44000032EDDCB55E
:102E5000F93B00006757702EDB148BA6CB44261E6F
:102E6000340A1A95047CCD3C64CBA833709C89AF9E
:102E7000453EBB29448862A38727941CCD855A957B
:102E80008DA0AB0D6FE55F85C93B00000000000021
:102E9000F0B55F4656464D464446F0B483B0071C35
:102EA0002B4E2C4C2C4D2D4A92462D4B98462D4A9C
:102EB00093462D4B9946381CB047A0471F4B1E4ADE
:102EC000A8471F4A1F4BD047C0472849D847011C75
:102ED0002748C847A047274B9847C047011C2648AA
:102EE000C8472649264B9847A047174A174B254CF9
:102EF000A047C04701900022234B1A70019800217F
:102F0000224B9847002807D001221F4B1A70019BC3
:102F1000802212069B18019301981D49114B984776
:102F2000019001981B4B984780B203B03CBC90467F
:102F30009946A246AB46F0BD7B14AE47E17A843F8A
:102F400000000000000059409A9999999999A93F69
:102F5000D14800001164000089580000A95D0000FC
:102F6000B564000099420000ED44000097387239C2
:102F7000FF691C3E49370000DF1AC83E9738F23817
:102F8000D13E00007149000052010020793B000051
:102F900000002041C93B000082B000230193019B47
:102FA000012B07DCC046C046019B01330193019B06
:102FB000012BF7DD02B0704710B582B00190019B84
:102FC000002B07D0044CA047019B013B0193019BC0
:102FD000002BF8D102B010BD992F000008B50248AF
:102FE000024B984708BDC0461A040000B92F0000E4
:102FF00010B582B00190019B002B07D0044CA04774
:10300000019B013B0193019B002BF8D102B010BD45
:10301000DD2F000070B582B06B46D88006331B8868
:103020009BB2002B0ED0FA26B600074D6C46063434
:10303000301CA8472388013B9BB2238023889BB286
:10304000002BF5D102B070BDF12F00000268138A89
:10305000DB0BDB039BB2002BF9D1704730B58BB093
:103060000E2000211C4B98478022D2011B4B1A6076
:1030700001AA64230193002313711374802189032F
:10308000916001214942918113771362144BD381DE
:10309000144B5361144B9361144D281C1449154B68
:1030A0009847C822144B1A802C68281C134B984749
:1030B0002268022313432360E8880023102105E0DF
:1030C0000133834202D31023238202E0228A0A4280
:1030D000F6D00BB030BDC0464D070000184400418B
:1030E0001027000002000C0002000D0098010020D3
:1030F00000100042050100000A1000424D3000009F
:10310000F0B5474680B486B06B46D873484C494BFF
:103110009846494F0720A0470028FBD08026B600DC
:1031200043461E600520B847444D06232B800520EA
:10313000B847434B1E602B88DBB2AA2BEAD13C4C2C
:103140000720A0470028FBD08025AD00394B1D602B
:103150000520394EB047394C012323800520B04764
:10316000374B1D602288D2B2364B1A70304C072084
:10317000A0470028FBD08025AD002E4B1D60052008
:103180002D4EB0472D4C012323800520B0472C4BFA
:103190001D602288D2B22C4B1A70254C0720A04704
:1031A0000028FBD08025AD00224B1D600520224E5B
:1031B000B047224C012323800520B047204B1D60DF
:1031C0002288D2B2214B1A701E4B1A78D2096C4653
:1031D000E27519787F220A401A70022009211C4BDF
:1031E0009847E37D002B0DD0164B1B78164A1278BA
:1031F0001B021A43174B1A60196880221202521AD6
:103200001A6007E00F4B1B780F4A12781B021A4313
:10321000104B1A600F4B18680A23009300210622F6
:1032200002230D4CA04706B004BC9046F0BDC0463A
:103230008508000014440041B92F0000180800421E
:10324000184400415301002050010020510100208A
:10325000B92900001C0100207D0B0000F8B5850095
:10326000281880000D180024064F074E0134E4B2E0
:10327000201C0121B847281CB0471435042CF5D177
:10328000F8BDC046B92900005929000070B5061CD8
:10329000012014210C4DA84720200C4CA0470220EF
:1032A0001421A8472020A04703201421A84720204C
:1032B000A04704201421A8472020A047301C142137
:1032C000A8477F20A04770BDB9290000252900002C
:1032D000F0B55F4656464D464446F0B483B080464E
:1032E000894600203D4B984701203D4B98473D4B78
:1032F0009847002701250126042252429246C244E3
:103300005346DBB29B46DAB20192374CA047002805
:10331000FCD0364B9847364B1B78002B21D0013E12
:10332000F3B2013DEDB24246D6B25AB2002A04DDF4
:1033300071B201268A4200DC1E1C6BB2002B41DCFC
:10334000002F06D1019F58464946244B9847042533
:1033500038E0013FFFB2F8B24946204B98470125BB
:1033600030E0244B1B78002B22D0731CDBB20135DC
:10337000EDB24246D6B25AB2002A04DD71B201263D
:103380008A4200DC1E1C6BB2042B1BDD7BB2534552
:1033900006D100204946114B98470027012511E02E
:1033A0000137FFB2F8B249460C4B9847042509E0B3
:1033B000114B1B78002B01D0F0B208E00F4B1B78AB
:1033C000002B03D1E8B2064B98479EE7002003B0DC
:1033D0003CBC90469946A246AB46F0BD5D3200002B
:1033E0008D320000E1060000C50400000105000068
:1033F000C4000020C5000020C3000020C100002040
:1034000070B504AC257805AC267806AC2478022883
:1034100008D003280BD001280ED1081C111C094B21
:1034200098470DE0181C291C064B984708E0301CF3
:10343000211C044B984703E002200349034B9847A3
:1034400070BDC046B9290000846C00003D2A000010
:10345000F0B55F4656464D464446F0B487B0041C6E
:10346000894690461F1C10AB1B789B4611AB1E78FB
:1034700012AB1B789A46304B984773427341032234
:10348000D21A0592E5B25846009001965146029133
:10349000201C494642463B1C284CA047284B9847D5
:1034A000284C3B1C4746321C48460490914698469F
:1034B000049EA0470028FCD00496234EB047234E1C
:1034C0003378002B07D00135EDB2059E73B26AB296
:1034D00093421ADB1CE01E4B1B78002B05D0013DEC
:1034E000EDB26BB2002B13DC11E01A4B1B78002BF2
:1034F00003D0194B9847E8B217E0184B1B78002B04
:1035000006D0154B984700200FE0012500E0059DEF
:10351000E8B2594600914A460192534602930499F3
:103520003A1C4346054EB047C2E707B03CBC904644
:103530009946A246AB46F0BD252B000001340000A1
:10354000E1060000C504000001050000C0000020E5
:10355000C2000020C3000020352B0000C100002065
:1035600010B50D4B1968802212020A431A60002020
:1035700016210A4B98470A4C012323804022094B0D
:103580001A7015200421084B9847084B23807F228E
:10359000074B1A7010BDC0462004004035070000DC
:1035A000003C0042053C0042A90800004603000020
:1035B000193C004210B5084B9847084B9847084BF8
:1035C000984700200749084CA04701200749A04719
:1035D00002200749A04710BD61350000892B00007B
:1035E000352B000004000020952A00000C0000206C
:1035F0001400002070B5164B9847164B98470120D1
:103600000921154CA0471548154DA84701200A214E
:10361000A0470120134B984702200221A0471248DF
:10362000A84703200221A0471048A847104B9847FD
:103630000020104EB04702200221A0470E48A847A4
:1036400003200221A0470D48A8470020B04770BDC5
:10365000592B0000C12A0000B9290000986C000015
:1036600059290000252900009C6C0000B06C000066
:10367000712B000015300000C46C0000D86C0000F5
:1036800010B50C4B98470C4B98470C4B98470020B3
:103690000B490C4B9847072002210B4CA0472320D5
:1036A0000121A04709200021A04780229200074B5A
:1036B0001A6010BD69040000B53500005D300000DF
:1036C00080841E00190900004D07000018440041C5
:1036D00010B5114B9847114B9847114B9847114B18
:1036E0009847114B984703201421104CA0477F2086
:1036F0000F4B984701200121A0470E4B1A780E4B23
:1037000018780E4B197882188A18D2B21A700C4C9D
:103710000420A047FCE7C0461116000081360000D7
:1037200019270000F5350000452B0000B9290000DD
:1037300025290000510100205001002053010020E4
:103740000131000000000000F0B5474680B48AB0A7
:10375000041C0D1C00F058F8294A0023D35690464B
:10376000061C0F1C01330DD0201C291C00F032F95F
:10377000002807D0201C291C204B1F4A00F0C2F94A
:10378000002805D1301C391C0AB004BC9046F0BD9D
:10379000012300931B4B0494059501930023089388
:1037A0004346029403951C78002C0ED1134B124A09
:1037B00006920793684600F03DF900280FD0089B59
:1037C000002B11D1069E079FDCE70C490A48021C1A
:1037D0000B1C01F0EFFB06900791022CEAD102F0DE
:1037E00013FF21230360EAE702F00EFF089C046048
:1037F000E8E7C046C046C0460000000000000000E8
:103800001C000020846D0000F0B55F4656464D4612
:103810004446F0B46C4E0D1C371C83B0041C021CD3
:103820000B1C2F40B74200D1ADE0002900DC8BE03B
:103830002F1500D194E0654D09038023090B5B032C
:103840007F190B43FE0700D570E07F10C20FB8460A
:103850005B00002780219B1816244200009700205F
:10386000890345189D4204DC68185B1B009D6D1898
:103870000095D50F5B00013C5B1952004908002CF4
:10388000EFD180210026090620250196B4468946FD
:1038900009E0834246D0D40F5B00013D1B19520062
:1038A0004908002D1CD066468C198342F1DD67184B
:1038B000E60FBC46F60782464E452CD01B1AA242A4
:1038C00080414042019F1B1A121B7F18D40F5B00DE
:1038D000013D019750461B1952004908002DE2D1C5
:1038E000134328D101984308009D394E6A1092195C
:1038F000ED0702D5802109060B4340460705B9189C
:103900001C1C0D1C201C291C03B03CBC9046994675
:10391000A246AB46F0BDFF0FFF077E427E41B24696
:103920008244CBE79442C2D9181CB4E7C20F5B00B3
:103930009B18400089E7019901312FD0019C012398
:1039400023401B195B08CFE76B005B081A43D9D0F3
:10395000002700292BD1C10A153F40050029FAD0C4
:103960008022520311421ED100234900013311422B
:10397000FBD001242022E41AD21A3F19041CD4409F
:103980002143984057E7201C291C01F07DFF221C91
:103990002B1C00F0EDFF041C0D1CB3E7009A002364
:1039A00001320092A0E7202201240023E5E7221C37
:1039B0002B1C201C291C02F0F7F9021C0B1C01F027
:1039C000F9FA041C0D1C9DE70000F07F01FCFFFFCD
:1039D0000000E03F0B1C011C021C30B51943022003
:1039E000002900D130BD802109068B4216D00D4937
:1039F00004205C180C498C42F4D90C4D5C198C42A3
:103A0000F0D90B4C590049080320A142EAD9074CD0
:103A10000020A142E6D150425041E3E7002AE1D024
:103A2000EFE7C0460000F0FFFFFFDF7F0000F07F00
:103A3000FFFF0F0000207047002934D0012300222F
:103A400010B488422CD301242407A14204D281421D
:103A500002D209011B01F8E7E400A14204D281422D
:103A600002D249005B00F8E7884201D3401A1A43AA
:103A70004C08A04202D3001B5C0822438C08A042E1
:103A800002D3001B9C082243CC08A04202D3001B97
:103A9000DC082243002803D01B0901D00909E3E711
:103AA000101C10BC7047002801D00020C04307B490
:103AB000024802A14018029003BDC0461900000050
:103AC0000029F0D003B5FFF7B9FF0EBC4243891AB5
:103AD0001847C0467047C0468446101C62468C4654
:103AE000191C634600E0C0461FB501F04FFE0028D8
:103AF00001D40021C8421FBD10B501F07FFD404236
:103B0000013010BD10B501F041FE002801DB00209E
:103B100010BD012010BDC04610B501F037FE0028D1
:103B200001DD002010BD012010BDC04610B501F020
:103B3000AFFD002801DC002010BD012010BDC046F3
:103B400010B501F0A5FD002801DA002010BD01200C
:103B500010BDC0468446081C6146FFE71FB500F053
:103B60004FFB002801D40021C8421FBD10B500F052
:103B7000D5FA4042013010BD10B500F041FB0028DD
:103B800001DB002010BD012010BDC04610B500F0C3
:103B900037FB002801DD002010BD012010BDC0460C
:103BA00010B500F0E5FA002801DC002010BD01206E
:103BB00010BDC04610B500F0DBFA002801DA002085
:103BC00010BD012010BDC0469E2110B5C905041CC2
:103BD000FFF7F0FF002803D1201C00F0FDFD10BD11
:103BE0009E21C905201C00F081FC00F0F5FD80231A
:103BF0001B06C018F3E7C046F8B543024400C50FE2
:103C00004E024800240E2A1C9B09000EC90FB6095B
:103C10008D425BD0221A002A00DC89E000281DD1E9
:103C2000002E00D075E0580704D00F221A40042A55
:103C300000D004338021C90419402A1C00293AD03D
:103C40000134FF2C00D17FE09B015B0A5B02E4B2F0
:103C5000E405580AD20720431043F8BDFF2CE2D0F8
:103C60008021C9040E431B2A00DD2DE1311C2020D8
:103C7000D140821A9640721E96410E439B1B5801FA
:103C8000D1D59B019F09381C02F0A0FC421F974030
:103C900094425BDC141B1F231B1B3A1C9F40611CBE
:103CA0003B1CCA405F1EBB4113430024BBE7131EED
:103CB000B9D100230022DB08FF2C04D1002B43D014
:103CC0008020C00303435B025B0ABFE7211A00297F
:103CD00040DD002823D0FF2CA5D08020C00406435F
:103CE0001B2900DDEEE0301C2027C840791A8E40E9
:103CF000711E8E4106439B19590100D493E701348C
:103D0000FF2C55D0714901221A400B405B08134328
:103D100089E7013A002AB1D0FF2CA4D183E7002E15
:103D200000D180E701390029E5D0FF2CD8D17AE70E
:103D3000002A1BD1621CD2B2012A4BDD9F1B7A01E3
:103D400023D5F71A0D1C9EE700237FE75F4BA41ACB
:103D50003B4068E7002946D1611CC8B2012829DD33
:103D6000FF2924D0F3185B080C1C5CE7002C13D04F
:103D7000FF2818D08024E404524223431B2A4DDD3F
:103D80000123F31A041C0D1C79E7002F00D07AE7F9
:103D90000023002200248EE7002B3BD0D243002AD0
:103DA000EFD0FF28EAD1331CFF240D1C3BE7FF2492
:103DB000002380E7002C5CD1002B00D180E0002E96
:103DC00000D130E79B19580100D42CE73F4A012469
:103DD000134028E7002C15D1002B40D1002E63D0D2
:103DE000331C0D1C1FE7002C21D1002B54D0C943DC
:103DF000002904D0FF284CD01B2958DD01239B1932
:103E0000041C79E7002B19D1002E48D0331C0D1C5F
:103E1000FF2408E7331C041C0D1C04E71C1C202590
:103E2000D440AA1A93405A1E93412343A9E7FF287E
:103E30002FD08024E40449422343DDE7FF24002EF1
:103E400000D1F0E68022DB08D203134204D0F6084A
:103E5000164201D1331C0D1CDB00FF24E3E6002ECB
:103E600000D1E0E69A1B500100D420E7F31A0D1CA4
:103E7000D9E6002B0DD0FF24002E00D1D3E68022FE
:103E8000DB08D2031342E7D0F6081642E4D1331C14
:103E9000E2E7331CFF24C6E6331C041CC3E6802380
:103EA00000229B04FF2406E7231C002203E71C1CBE
:103EB0002027CC40791A8B40591E8B4123439EE723
:103EC000331CB0E6012616E70126D7E6FFFFFFFB0D
:103ED000F0B55F4656464D464446F0B446024500AE
:103EE000C00F85B00F1C760A2D0E804641D0FF2DE5
:103EF00026D08024240400212643F6007F3D8946F5
:103F00008B46F90F7C027800640A000E00918A4605
:103F10003CD0FF2834D080231B041C430023E40042
:103F20007F380193009F4346019A7B4049469C4657
:103F300011430F2900D971E0764F89007F58BF46A1
:103F4000002E3ED10822022391469B46D9E75A46CD
:103F5000341CC24601920199022937D0032900D1AD
:103F6000CFE0012900D0ABE053460B4000220026F1
:103F700032E0002E19D10421012289469346C0E780
:103F8000221C531E9A4102320192CBE7012701976E
:103F9000002CC7D0201C02F019FB431F9C40762345
:103FA0005B420021181A0191BCE7301C02F00EFBA5
:103FB0007625431F9E406D4200232D1A99469B464D
:103FC0009FE70C23032199468B469AE7D4460123A9
:103FD00067463B40FF2200267602D205700ADB07C7
:103FE0001043184305B03CBC90469946A246AB46E8
:103FF000F0BD80260023F603FF22EDE70022002615
:10400000EAE78020C00306423BD0044239D1061CB7
:1040100026437602760A009BFF22DDE7281A0390EA
:1040200076016401A64239D3361B1A2201230120EE
:10403000311C5B007600002901DBB44201D8361B3D
:104040000343013A002AF3DC741EA641341C1C43CE
:10405000039A7F32002A27DD630704D00F23234011
:10406000042B00D00434270103D52B4B039A1C40AA
:104070008032FE2A0BDD012361460B40FF22002621
:10408000AAE706437602760A4346FF22A4E7A40184
:1040900001236746660AD2B23B409DE7039F1B227D
:1040A000013F03970023C2E77E23039F5B42DB1B94
:1040B0001B2B07DD012361460B40002200268BE706
:1040C000D446C5E7221CDA40039B9E339C40231C48
:1040D0005C1EA34113435A0704D00F221A40042A3E
:1040E00000D004335F0105D5012361460B40012256
:1040F000002671E79E01624601231340760A0022E2
:104100006AE78026F60326437602760A5346FF22A4
:1041100062E7C0468C6D0000FFFFFFF74A024302D2
:1041200070B55C0A550A43004A001B0EC60F120EFA
:10413000C90FFF2B05D0FF2A08D0012093420BD0D6
:1041400070BD0120002CFBD1FF2AF6D10120002DEB
:10415000F6D101209342F3D1AC42F1D18E4205D089
:10416000002BEDD1201C441EA041E9E70020E7E729
:104170004A024302F0B55C0A550A43004A001B0E8E
:10418000C60F120EC90FFF2B31D0FF2A34D0002BDF
:1041900016D1604260418446002A14D0002820D104
:1041A0008E4217D1934215DC04DBAC4212D80020BA
:1041B000AC4212D2704270414042012318430CE0DD
:1041C000002AEDD194466F426F416046002805D128
:1041D000002FE5D0704201231843F0BD0020002FCE
:1041E000FBD148424841404201231843F5E7002CE7
:1041F000CBD002204042F0E7002DC8D0F9E7C046FE
:104200004A024302F0B55C0A550A43004A001B0EFD
:10421000C60F120EC90FFF2B27D0FF2A29D0002B63
:1042200010D0002A15D194466F426F416046002895
:1042300015D00020002F04D14842484140420123BC
:104240001843F0BD604260418446002AECD000284B
:10425000F2D18E4211D0704201231843F1E7002FB2
:10426000F7D0704201231843EBE70220002CE8D17D
:10427000D3E70220002DE4D1D1E79342EBDC04DB4D
:10428000AC42E8D80020AC42DBD2704270414042E0
:1042900001231843D5E7C046F0B55F4656464D4664
:1042A0004446F0B44402460083B00F1C640A360E44
:1042B000C50F002E41D0FF2E22D080231B040020EA
:1042C0001C43E4007F3E82468046391C4B007F023F
:1042D000C90F7F0A1B0E8B463BD0FF2B34D08022A8
:1042E00012041743FF007F3B00215A466A400192A7
:1042F00052460A430F2A63D87A489200825897465A
:10430000002C3FD10822022392469846DDE7019512
:10431000404602282AD1019A01251540FF23002496
:104320006402DB05600AED071843284303B03CBC78
:1043300090469946A246AB46F0BD002C27D10420FA
:10434000012282469046C0E7391C4A1E9141023143
:10435000CBE70121002FC8D0381C02F037F9431FEA
:104360009F4076235B421B1A0021BEE7032800D141
:10437000AEE001284FD1019842461040C5B200235B
:104380000024CDE70C2303209A4680469DE7201C9D
:1043900002F01CF97626431F9C4076420023361A11
:1043A0009A46984691E780240025E403FF23B7E767
:1043B0005B463C1C01938846AAE73C1C8846A7E75D
:1043C000250C24043A0C240C3F04F6183F0C211C45
:1043D000231C794353436F435543FB180A0C9B1826
:1043E000B1469F4202D980225202AD1809041A0434
:1043F000090C521894011B0C611E8C41920EED1891
:104400001443AD012C43230105D50122630801208B
:10441000144081441C434B467F33002B2DDD600745
:1044200004D00F222240042A00D00434220103D5F4
:104430002D4B1C404B468033FE2B17DD019B012585
:104440001D400024FF236BE78020C003044208D0F6
:10445000074206D1041C3C436402640A5D46FF2304
:104460005EE704436402640AFF2359E70198A4014C
:104470000125640ADBB2054052E77E235B424A46CF
:104480009B1A1B2B05DD019B01251D4000240023E9
:1044900046E7221CDA404B469E339C40231C5C1EA0
:1044A000A3411343580704D00F221A40042A00D016
:1044B00004335A0105D5019B01251D400024012329
:1044C0002EE701989C010125640A0540002327E797
:1044D0008027FF03019B3C43640201251D40640AC1
:1044E000FF231DE7CC6D0000FFFFFFF7F8B5C20FFB
:1044F000430244004D024800240E161C9B09000E86
:10450000C90FAD09FF2800D183E0012779408A4215
:104510005CD0221A002A00DC8EE000281ED1002D7B
:1045200000D07AE0580704D00F221A40042A00D0A5
:1045300004338021C90401221940324000293AD0B5
:104540000134FF2C00D183E09B015B0A5B02E4B2E3
:10455000E405580AD20720431043F8BDFF2CE1D0F0
:104560008021C9040D431B2A00DD31E1291C2020D4
:10457000D140821A95406A1E95410D435B1B58013C
:10458000D0D59B019F09381C02F020F8421F9740AC
:1045900094425FDC141B1F231B1B3A1C9F40611CB1
:1045A0003B1CCA405F1EBB4113430024BAE7131EE5
:1045B000B8D100230022DB08FF2C04D1002B47D008
:1045C0008020C00303435B025B0ABFE7211A002976
:1045D00044DD002827D0FF2CA4D08020C004054350
:1045E0001B2900DDF2E0281C2027C840791A8D40E5
:1045F000691E8D4105435B19590100D492E70134CE
:10460000FF2C59D0734901221A400B405B08134319
:1046100088E7002D00D07AE777E7013A002AADD08D
:10462000FF2CA0D17EE7002D00D17BE701390029C6
:10463000E1D0FF2CD4D175E7002A1BD1621CD2B285
:10464000012A4BDD5F1B7A0123D5EF1A0E1C9AE776
:1046500000237BE75F4BA41A3B4063E7002946D168
:10466000611CC8B2012829DDFF2924D0EB185B08A2
:104670000C1C57E7002C13D0FF2818D08024E4042A
:10468000524223431B2A4DDD0123EB1A041C0E1C4E
:1046900075E7002F00D076E70023002200248AE788
:1046A000002B3BD0D243002AEFD0FF28EAD12B1CAD
:1046B000FF240E1C36E7FF2400237CE7002C5CD18E
:1046C000002B00D180E0002D00D12BE75B195801B1
:1046D00000D427E73F4A0124134023E7002C15D1DB
:1046E000002B40D1002D63D02B1C0E1C1AE7002C90
:1046F00021D1002B54D0C943002904D0FF284CD02D
:104700001B2958DD01235B19041C75E7002B19D107
:10471000002D48D02B1C0E1CFF2403E72B1C041C6F
:104720000E1CFFE61C1C2026D440B21A93405A1ED1
:1047300093412343A9E7FF282FD08024E404494272
:104740002343DDE7FF24002D00D1EBE68022DB08C8
:10475000D203134204D0ED08154201D12B1C0E1CCC
:10476000DB00FF24DEE6002D00D1DBE65A1B500102
:1047700000D41CE7EB1A0E1CD4E6002B0DD0FF244E
:10478000002D00D1CEE68022DB08D2031342E7D011
:10479000ED081542E4D12B1CE2E72B1CFF24C1E6F7
:1047A0002B1C041CBEE6802300229B04FF2402E78E
:1047B000231C0022FFE61C1C2027CC40791A8B40CA
:1047C000591E8B4123439EE72B1CABE6012512E7C4
:1047D0000125D3E6FFFFFFFB4302590A4300C20F46
:1047E0001B0E00207E2B0DDD9D2B0CDC8020000499
:1047F0000143952B0ADC9620C31AD9404842002A6F
:1048000000D1081C7047034BD018FBE7963B99403A
:10481000F4E7C046FFFFFF7F70B5041E3CD0C60F13
:1048200000D04442201C01F0D1FE9E23251C1B1AFF
:10483000962B0CDC083884406402640ADBB2321C1C
:104840006402DB05600AD2071843104370BD992B40
:104850000ADD0522121A211CD1400A1C011C1B3141
:104860008D40691E8D411543052801DD421F95408D
:10487000164C2C406A0704D00F221540042D00D09E
:10488000043461010CD59F23181AFF281AD0A40103
:10489000640AC3B2321CD3E7002200230024CFE70E
:1048A000E408FF2B04D06402640ADBB2321CC7E7C1
:1048B000002C04D08020C00304436402640A321C2C
:1048C000FF23BDE7321CFF230024B9E7FFFFFFFBF6
:1048D00010B5041E33D001F079FE9E231B1A962BCF
:1048E00009DC083884406402640ADBB26402DB0538
:1048F000600A184310BD992B0ADD0522121A211CEB
:10490000D1400A1C011C1B318C40611E8C41144398
:10491000052801DD421F9440144A2240610704D05B
:104920000F210C40042C00D0043251010AD59F23E2
:10493000181AFF2816D09401640AC3B2D6E70023E0
:104940000024D3E7D208FF2B03D05402640ADBB261
:10495000CCE7002A06D08024E40314436402640AEE
:10496000FF23C3E7FF230024C0E7C046FFFFFFFB90
:10497000F8B55F46564644464D46F0B40C034D002C
:10498000CE0F610A440F2143C4001803804658002B
:10499000400D8246D80F84464046400A530F0343D9
:1049A000D0006D0D371C83465246664500D1A4E009
:1049B000AF1A002F00DC09E1002A3BD1184300D0D8
:1049C000EAE0630700D187E00F232340042B00D1E6
:1049D00082E0221DA242A4416442802309191B04E3
:1049E0000B40371C141C002B00D17CE0CE4B013552
:1049F0009D4200D105E1CD4BE4081940480749022A
:104A000004430B0B002000211B031A0B0B0D6D053B
:104A10001B0513436A08C64DFF071D4015436D0073
:104A20006D08291C3943201C3CBC90469946A2467F
:104A3000AB46F8BDBC488542C3D080200004034388
:104A4000382F00DDF0E01F2F00DD24E12020C01B07
:104A50001A1C814682405846F84002439446584604
:104A60004A469040421E9041FB40624602431F1C52
:104A7000A21A9442A4416442C91B091B141C0B02D4
:104A80009FD549024F0A002F00D1C8E0381C01F021
:104A90009DFD021C083A1F2A00DDB5E02821091AF5
:104AA000201C9740C84007439440954200DDB2E087
:104AB000551B691C1F2900DDDCE01F22551B3B1C18
:104AC000221CAB40CA40AC40651EAC411343CF40F2
:104AD0001C43391C002574E780231B040B40371C42
:104AE000002B00D082E7904B4807E4080443C90834
:104AF0009D4248D009030B0B84E7AA1A9446002A6A
:104B000000DC98E05046002852D08748854200D10A
:104B100057E78020000403436246382A00DDFCE0AA
:104B20001F2A00DD4AE120226046101A1A1C82402A
:104B30008246914658466246D0404A4602439046D5
:104B4000584652469040421E9041424602436046BB
:104B5000C3401219A242A441644259180919141CF5
:104B6000080200D42DE7704B01359D4200D122E1AF
:104B70006E4B60081940012323401C1C0443CB07E3
:104B80001C4349081DE7231C0B433AD080231B0319
:104B90000B431B031B0B35E7013F002F65D1584624
:104BA000221A9442A4416442C91A091B141C66E7E4
:104BB0005846184300D104E701225242944460460B
:104BC000002800D0C5E058460219C3E7002F73D172
:104BD000681C4005400D012800DCDEE05A46A21AA0
:104BE0009442BF41C81A7F42C71B380200D489E0F3
:104BF0005A46141BA3459241591A52428F1A6646CF
:104C000041E700230024FDE6271C283887400024C4
:104C1000954200DC4CE74549AD1A3940D1E6201CED
:104C200001F0D4FC203034E75A461A43531E9A410F
:104C3000D2B200271CE7002A00D0DCE0681C420545
:104C4000520D012A00DC8DE0374DA84200D1F3E07F
:104C50005D462A19A242A441644259180919CC0799
:104C6000520814434908051CABE62F48854200D082
:104C7000E6E6A6E62B1C1F3B3A1CDA40131C202953
:104C80006CD03F22551BAF403C43601E84411C4307
:104C90000021002595E6381C20381A1CC240101C43
:104CA000202F5DD04022D71BBB405A461A43531ECB
:104CB0009A4102430027DBE6002D3BD01A4DAA455E
:104CC00000D193E080252D047F422943382F00DD59
:104CD000ACE01F2F00DD29E12025ED1B081C261C60
:104CE000A840FE40AC400643651EAC413443F94049
:104CF0005D462C1BA34592415B1A5242991A5546B8
:104D00006646BCE6131C3B43141C002B00D0BAE6DD
:104D10000027002100250024E5E65A461A43531EC9
:104D20009A41D2B2002314E7FF070000FFFF7FFF84
:104D3000FFFF0F800D1C254358D0FF43002F51D19A
:104D4000041BA3459241591A5242891A5546664698
:104D500095E69648854200D0DEE632E6002793E7E6
:104D60000023A2E7081C2043002D00D0C4E0002847
:104D700000D1F7E05846184300D122E65846021900
:104D8000A242A441644259180919141C0A0200D411
:104D900017E6874B0125194013E6081C2043002D18
:104DA00039D1002871D15946194303D0191C5C46EA
:104DB000664606E600270021002494E66046203877
:104DC0001A1CC24060469146202800D1ACE0402227
:104DD000121A93405A461A43531E9A414B461A439D
:104DE0000023B6E6714DAA4500D06FE7191C5C465A
:104DF00055466646E5E5002D22D10D1C254377D0AA
:104E0000D543002D71D15C445C4592415918524202
:104E100089185546A4E600284DD15946194300D1BA
:104E200094E0191C5C466646604DCAE50C43611E61
:104E30008C41E4B200215BE7051C0021002452E60E
:104E40005A4DAA4554D05542802210040143382DB2
:104E500000DD81E01F2D00DD92E02022501B0A1CA6
:104E600084468240201CE8400243904662469440BB
:104E7000601E844142461443E9405C445C459241D3
:104E8000CB185242991855466AE65846184300D145
:104E900097E55846271ABC429241C81A5242801AD6
:104EA000020266D55846041BA3459241591A524244
:104EB000891A664685E55846184333D04807E40802
:104EC00004438020C9080003014208D0DD080542E0
:104ED00005D15946CA085C071443291C6646630F6E
:104EE000C9001943E400314D6BE5304A9245AED11B
:104EF000191C5C46554664E5002836D058461843D0
:104F000010D080254807E408C9082D03044329422E
:104F1000E5D0D8082842E2D15D46EA085C07144390
:104F2000011CDCE7214D4CE5002353E73D1C203DEF
:104F30000A1CEA40151C202F34D04026F71BB9402C
:104F40000C43611E8C412C430021D1E680210027B7
:104F5000C903164D0024C6E50C43611E8C41E4B222
:104F600000218AE7191C5C462BE5191C5C460F4D95
:104F700027E5031C3B4300D11CE7011C3C1C20E53A
:104F80002020404240190A1CC2409046202D0BD0E0
:104F90004020451BA9400C43611E8C4145462C43D3
:104FA00000216AE70021CBE70021F4E7FF070000BA
:104FB000FFFF7FFFF0B5564644465F464D46F0B4CE
:104FC0001F1C0B031B0B98464B0087B0041C81462B
:104FD0005B0DC80F161C9A460090002B51D06A4BEF
:104FE0009A4531D08022414652030A43630FD200D2
:104FF0001A43664B90460025E20091469A440024ED
:1050000002953B031B0B9B46FD0F7B00311C5B0D88
:10501000019560D05C4A934254D0802158464903A0
:105020000143720FC9001143584A8B469B18F10087
:105030000020009A04436A4003920F2C00D9ADE08F
:10504000534EA4003459A746404604436ED1002174
:1050500002250824884689460295D2E7009C0298DA
:10506000C34649460194022864D0032800D1ABE22C
:10507000012800D038E2019A002402400025A14610
:1050800060E0434623434AD04046002800D1C0E1B7
:1050900001F09CFA031E272B00DDB3E128210D1A35
:1050A000211C083B4246E9409A400D1C1543221C36
:1050B0009A40A8469146374B00251B1A9A46002471
:1050C00002959EE75A4616430320002EB1D1B346FF
:1050D00000210220ADE75A4632431BD05B46002B2D
:1050E00000D18AE1584601F071FA272800DD7DE100
:1050F0002822171A011C321C08395B46FA408B40E3
:10510000171C1F43331C8B40BB46191C214B1B1A19
:1051100000208EE70027BB460021012089E7002000
:10512000012504248046814602956AE703250C2464
:10513000029566E7019C0394039D01222A40002406
:10514000114DA146002000212403260B0C0D24053F
:10515000114B34432D0523402B435B005B08D207E2
:10516000191C4846114307B03CBC90469946A246DC
:10517000AB46F0BD0022802424039146024DE1E7B6
:1051800000240025A146DDE7FF07000001FCFFFF2A
:105190000C6E00000DFCFFFFFFFF0F805546ED1A5F
:1051A0000495D84500D953E100D14EE1049C002577
:1051B000013C4E4604944746A946584603020C0E4D
:1051C0001C430902250C23041B0C0091381C291CCC
:1051D0000193FEF731FC019983464143381C8A460E
:1051E000291CFEF76DFC330C090419438A450CD9C0
:1051F0005B460919013B8C4200D947E18A4500D83A
:1052000044E102225242934409195346CB1A181C16
:10521000291C9846FEF710FC071C0198291C7843AE
:1052200082464046FEF74CFC36040B04360C3343F2
:105230009A4509D91B197A1E9C4200D924E19A4546
:1052400000D821E1023F1B195E4632041743380C97
:10525000BB46009E009F51463F0C32045B1A5946E4
:10526000BA46120C0F043F0C904651467A434F4306
:105270004146414356467043CF19160CBE19B14200
:1052800002D980277F02C019310C12043604120C97
:105290004018B618834200D2C4E000D1BEE0191A0B
:1052A0004846861BB145BF417F42CF1BA74200D174
:1052B00013E1291C381CFEF7BFFB01990290414302
:1052C000381C8946291CFEF7FBFB330C09041943E3
:1052D00089450CD9029B0919013B8C4200D9FFE09A
:1052E000894500D8FCE0029F0919023F02974F460A
:1052F000CF1B381C291C0597FEF79EFB071C019845
:10530000291C784381460598FEF7DAFB3604090428
:10531000360C0E43B14509D936197B1EB44200D96B
:10532000E0E0B14500D8DDE0023F3619029D494674
:10533000761A290439430B0457460A0C1B0C4046C5
:105340004546584355437B437A43EB18070CDB191A
:105350009D4202D980256D0252191D0C00041B04C8
:10536000000C52191B18964235D300D1FCE00123E2
:105370001943049E994FF519002D00DCA1E0480760
:1053800009D00F230B40042B05D00B1D8B42894104
:1053900049428B44191C5A46D20107D5904B5C46B2
:1053A000049E80271C40FF00A346F5198D4B9D42AB
:1053B0007ADD039C0122224000248B4DA146C1E6E8
:1053C00080242403474627424CD13C432403240B2A
:1053D000009A854DB6E63619481EB4425ED9011CC6
:1053E0009642C4D1009E9E42C1D1C2E7031C283B15
:1053F000311C99408B46002188E6301C01F0E6F80C
:10540000203072E6283B211C9940002288469146B4
:1054100051E6201C01F0DAF820303BE60021B145CE
:1054200000D33DE7009F5A46B944B945BF417F428A
:105430003F19FB18013A9C421ED2984200D97EE0E7
:1054400000D1B5E0191A93462AE7894500D8ADE6A0
:105450004846464642467708D3074608C0071E43DB
:105460008146AAE65846204212D1044324032A1C4E
:10547000240B89465C4D65E6A342E3D1009F4F456E
:10548000DBD9211A93460BE7171CDDE69B46BCE6E9
:105490003C432403240B009A534D53E6B24259D89F
:1054A00000D18AE0011C62E75F46C9087B07039EC2
:1054B0000B437C026D0501229946240B6D0D324091
:1054C00040E64A4B049FDB1B382B10DD039C012276
:1054D000224000240025A14634E60121494248E744
:1054E000029304E71F1C21E7019C039441E71F2B53
:1054F00040DC3F48049F0C1C3A1858469140DC4061
:10550000904020430A1C511E8A41011C11435A46F7
:10551000DA40131C480709D00F220A40042A05D09C
:105520000A1D8A42894149425B18111C1A0234D56E
:10553000039C0122224000240125A14602E6009F8F
:1055400002214942B9448B44B9458941494209196C
:10555000CB18A4E6009D881E6900A942AD416D42AA
:105560002C19361900913AE7002B00D033E70024BC
:10557000009437E71F4A049C5D46121BD5402A1C45
:10558000202B1FD01C4E5F46A3199F403B1C194384
:105590004B1E994111430023BCE75A07C9080A432F
:1055A000039F91465B0201221C0B3A400025C9E58E
:1055B0004E45C4D89346002172E6009F9F42C9D34E
:1055C000011C0FE70023E2E7802424035F463C43ED
:1055D0002403240B019A8946034DB3E5FF03000021
:1055E000FFFFFFFEFE070000FF07000002FCFFFFB9
:1055F0001E040000E2FBFFFF3E040000F0B55F4622
:1056000056464D464446F0B40D1C041C8046E80F37
:10561000814618030F03000B3F0B83B084461B48E1
:10562000009749005E00DF0F490D9246760DBB469C
:1056300081420CD01548864210D00120B14215D0CD
:1056400003B03CBC90469946A246AB46F0BD009FD5
:1056500001202743F4D10D488642EED16046024333
:105660000120002AECD10120B142E9D1009B634521
:10567000E6D1D045E4D1D94506D00029E0D11C437C
:10568000201C441EA041DBE70020D9E7FF070000F3
:10569000F0B55F4656464D464446F0B4CD0FDE0F9A
:1056A000AC461D032D0BB146374E0F034C00AB46E5
:1056B0005D0080463F0B640D92466D0DB44232D0C2
:1056C000314EB54235D0002C0ED1384341424141D4
:1056D000081C002D0BD0002919D1CC452DD06546D2
:1056E00068420123184318E0002DF6D1281C5946C2
:1056F0000A4353425341002806D1002BEDD06346A4
:1057000058420123184308E00020002B05D14A46E7
:10571000504250414042012318433CBC90469946B8
:10572000A246AB46F0BD3E1C0643C9D00220404213
:10573000F3E75E461643C6D0F8E7AC4207DC0BDA67
:10574000614648424841404201231843E5E7664626
:10575000704201231843E0E75F450AD80ED00020CD
:105760005F45DAD2654668426841404201231843EA
:10577000D3E76246504201231843CEE7D045F8D81C
:105780000020D045EED3C8E7FF070000F0B556462D
:105790004D4644465F46F0B40D1C83B0041C019096
:1057A000E80F814618030F03000B3F0B8446354872
:1057B000009749005E00DF0F490D9246760DB8460E
:1057C000814234D02F48864236D0002918D0002E8E
:1057D0001FD1341C67463A4353425341002C1FD01B
:1057E0000020002B05D14246504250414042012347
:1057F000184303B03CBC90469946A246AB46F0BD68
:105800000098044360426041041C002EE2D000284E
:10581000E9D1C14515D04F46784201231843E8E746
:10582000002BF6D04B46584201231843E1E7009F76
:1058300002202743DDD1C5E7674602201743D8D1B0
:10584000C3E7B14204DD4A46504201231843D0E782
:10585000B14207DB00986045E4D80AD0009F0020E1
:105860006745C6D24F4678427841404201231843EB
:10587000BFE7019A5245D5D8019A00205245F1D38D
:10588000B7E7C046FF070000F0B5564644465F46FE
:105890004D46F0B41F1C0B031B0B9A464B0087B000
:1058A000041C80465B0DC80F161C02938146002B1A
:1058B00068D0694B0299994232D0802253465203F4
:1058C0001A43D200630F1A439246644AE0008918D3
:1058D00080460291002400253B031B0B9B46780069
:1058E000FB0F321C400D039300D175E05A4B9842D8
:1058F00069D08022594652030A43730FD2001A43DB
:10590000564B9346C018F200002303994E4671404F
:105910001C430F2C00D9A9E0514EA4003459A746CE
:1059200053461C4300D087E00025AA46A846082419
:105930000225D1E74946022D6CD0032D00D117E294
:10594000012D00D058E10D40EDB20024A9460023FE
:10595000A0460020002125030A0D1C052D0B120571
:10596000404B2A43134023435B004C465B08E2074D
:10597000191C4046114307B03CBC90469946A246CC
:10598000AB46F0BD5346234350D05346002B00D1C5
:1059900084E1504600F01AFE031E272B00DD76E15D
:1059A00028210D1A211C083B5246E9409A400D1C43
:1059B0001543221C9A40AA4690462B4B00241B1AE2
:1059C0000293002588E75B461E430323002E9CD1EB
:1059D000B3460022022398E75B46334321D0584662
:1059E000002800D14EE100F0F1FD272800DD42E162
:1059F00028210F1A021C311C083A5B46F9409340DB
:105A00000F1C1F43331C9340BB461A1C164B181A1D
:105A100000237AE701230B4000249946A0460E4B51
:105A200097E70027BB46002201236EE700210424EC
:105A30008A46884601254FE70C2403254CE70025BC
:105A40008024A9462403A846034B82E7DA46904601
:105A500003991D1C6FE7C046FF07000001FCFFFF14
:105A60004C6E0000FFFF0F800DFCFFFF029F160C25
:105A7000381804904046070C0004000C1204120C65
:105A8000031C5343041C3D1C7443554398463B1C64
:105A900073436419A44644460293230C63449D4215
:105AA00004D9029D802464022D1902951D0C0395D2
:105AB00045462C041B04240C1C1905945C46230C3D
:105AC000051C58432404240C8446381C6043654359
:105AD0005F438146CC44280C6044BB46814502D9D3
