:10000000A8110020C5140000C1140000C114000094
:1000100000000000000000000000000000000000E0
:10002000000000000000000000000000C1140000FB
:100030000000000000000000C1140000C114000016
:10004000C1140000C1140000C1140000C11400005C
:10005000C1140000C1140000C1140000C11400004C
:10006000C1140000C1140000C1140000C11400003C
:10007000C1140000C1140000C1140000C11400002C
:10008000C1140000C1140000C1140000C11400001C
:10009000C1140000C1140000C1140000C11400000C
:1000A000C114000010B5064C2378002B07D1054B76
:1000B000002B02D0044800E000BF0123237010BDD4
:1000C00080000020000000002C69000008B5084BEB
:1000D000002B03D00748084900E000BF0748036829
:1000E000002B03D0064B002B00D0984708BDC0461C
:1000F000000000002C690000840000202C69000032
:1001000000000000F0B587B001600290484E081C66
:10011000141C0D1CB0470127464B821C3E1C196A5B
:100120009640321C0A431A62061C23790D366A4631
:10013000F6B2137404A9301C3F4B9847301C3F4B58
:1001400098473F4B2079002198472B681C209E0739
:100150006CD42B6805203B40019367D1029A14238D
:100160002B601668324B301C984705AD8023019AEE
:100170002B706169A36903906A70AF70EA70019394
:10018000002903D1301C2F4B9847011C2970090C02
:100190000223C8B22C4F291C6B70B847019A002A61
:1001A00004D1301C0121274B98470190019B264A1E
:1001B000180C0227C0B2291C2B706F709047A389BE
:1001C000029AD380E3891381227C8023002A05D1FF
:1001D0001E4B9B781F407B1E9F41FB01A268002A9B
:1001E00000D01343227F002A02D08022D20513437D
:1001F000226A002A00D01343376803983B433360D8
:1002000080235B000D307360C0B2114B98472368A8
:10021000FA21C90059434B1E18180E4B9847431F2B
:100220004020FF2B02D89BB27381002007B0F0BDA5
:1002300001040000000400409913000011130000A5
:1002400059020000A10200006D14000000200041CE
:10025000B51300009535000037B50E4B041C1A7815
:100260001D1C002A01D000290CD001A90C200A4B2A
:100270000C7098470C20094B984701236C702B7029
:10028000002006E05A781D20141B621E944164422F
:1002900020403EBD9C000020991300001113000077
:1002A0003A4A031C00B5081C93422BD006D8384AA2
:1002B00093420DD0374A934217D057E0364A9342C3
:1002C0003AD0364A934244D0354A93424ED126E042
:1002D0000023032957D803F053F9024B0406314B8E
:1002E00051E0314B4FE0314B4DE0002303294AD818
:1002F00003F046F902400406032344E02C4B42E09D
:100300002C4B40E0002303293DD803F039F9023596
:100310000406294B37E0294B35E0294B33E0002315
:10032000032930D803F02CF9022A0406254B2AE0D1
:10033000254B28E0254B26E00023032923D803F092
:100340001FF9021F0406224B1DE0224B1BE0224B2B
:1003500019E00023032916D803F012F90214040649
:100360001E4B10E01E4B0EE01E4B0CE000230AE07B
:100370001D4B08E01D4B06E01D4B04E01D4B02E049
:100380001D4B00E01D4B181C00BDC0460010004274
:1003900000080042000C004200180042001C00420D
:1003A00000140042030004000300060003000700DD
:1003B00003001E0003001F000300080003000A00E2
:1003C00003000B00030010000300120003001300E1
:1003D00003000C0003000E0003000F0003001600D2
:1003E00003001800030019000300050003000100CA
:1003F000030009000300110003000D0003001700B3
:1004000070B50A4986B06B4670C970C36A4670C938
:1004100070C3002399005158884201D1D8B203E03B
:100420000133062BF6D1002006B070BDBC61000080
:1004300010B52D20074C0321A0472E200321A047F3
:100440002A200021A0472B200021A0472C2000219A
:10045000A04710BDE9060000064A00231370064AB3
:100460001370064A1370064A1370064A1370064A40
:1004700013707047BD000020BE000020C0000020A7
:10048000C1000020BC000020BF00002038B5802241
:100490000A4BD2001A60802212011A608022520197
:1004A0001A602D20064DA8470124002803D02E20D5
:1004B000A8474440E4B2201C38BDC04694440041E3
:1004C00001080000F8B52C4CA047002850D01E2091
:1004D0002A4B9847A04700284AD0294F8023DB00A9
:1004E000284E3B6080231B01336080235B01264D37
:1004F00033602D20A8470124244B6040C0B21870FF
:100500002E20A847224B6040C0B218708023DB0029
:10051000336080231B013B6080235B0133602D200F
:10052000A8471C4B6040C0B218702E20A8471A4B39
:100530006040C0B218708023DB00336080231B0151
:10054000336080235B013B602D20A847134B604044
:10055000C0B218702E20A847114B4440E4B21C7062
:10056000054B9847002805D00120044B9847F7E732
:100570000C4B9847F8BDC0468D0400008D2B000041
:10058000944400419844004101080000C00000204C
:10059000BE000020BF000020C1000020BD000020E0
:1005A000BC00002059040000F8B5284CA0470028E2
:1005B00049D01E20264B9847A047002843D0254FFE
:1005C0008023DB00244E3B6080231B0133608023AB
:1005D0005B01224D33602D20A8470124204B604051
:1005E000C0B218702E20A8471E4B6040C0B21870D1
:1005F0008023DB00336080231B013B6080235B0191
:1006000033602D20A847184B6040C0B218702E20D0
:10061000A847164B6040C0B218708023DB003360DF
:1006200080231B01336080235B013B602D20A847A2
:100630000F4B6040C0B218702E20A8470D4B4440AD
:10064000E4B21C7001E00C4B9847F8BD8D0400002B
:100650008D2B0000944400419844004101080000A3
:10066000C0000020BE000020BF000020C10000200C
:10067000BD000020BC0000205904000010B51E2061
:10068000044CA047044B98470028FBD11E20A047EC
:1006900010BDC0468D2B00008D04000010B51E203B
:1006A000044CA047044B98470028FBD01E20A047CD
:1006B00010BDC0468D2B00008D04000008B5024B14
:1006C0009847024B984708BD9D0600007D06000034
:1006D0008023DB0119430302081C1843014B1880D7
:1006E0007047C046020C004010B500290DD14309E7
:1006F000354CDB011A191F2420400124844014606A
:10070000324A8018C31819705DE001290DD14309E0
:100710002F4CDB011A191F242040814011602B4906
:1007200004224018C018037821E002290FD14309A0
:10073000274CDB011A191F24204001248440146037
:10074000224A8018C0180378194301703BE005293C
:1007500010D143091F211C4CDB01084001211A194B
:1007600081401160194902224018C01803781343D0
:10077000037028E0032911D14309154ADB019918B8
:10078000124C1F2210400122824000190A60C0183A
:1007900001780624214301700E4912E0042912D188
:1007A00043090B4ADB019918084C1F221040012213
:1007B000824000190A60C0180178062421430170A4
:1007C00005495B181A6010BD0844004140440041CF
:1007D0000444004118440041144400414309DB0132
:1007E000002901D0044A00E0044A9B181F2210404F
:1007F000012282401A6070471844004114440041AD
:100800004309074ADB019B181F22104001221B6885
:100810008240101C1840431E9841C0B27047C04629
:100820002044004130B51F2342090A2909D1034061
:100830001448D2011B189A18137801218B431370A6
:100840001FE0104C03401D19D2010124AD182C707B
:10085000E340204209D10C481B189B181A780F203E
:1008600082431A701A7811430AE0074C09011B19D8
:100870009B1818780F2202401A701A781143C9B2D7
:10088000197030BD4044004130440041F8B5490082
:10089000041C584B58489847461EF6B2052C00D900
:1008A000A7E0201C554B564D564F574C02F068FEA2
:1008B000031B364E698400200D2198472B680422C3
:1008C00013432B60514B01221A60514A08201760D4
:1008D000504A02211670504A1A60A0470A2002218D
:1008E000A0470B2082E000200E2198472B680822A9
:1008F00013432B60494B01221A60494A10201760AC
:10090000484A02211670444A1A60A0471120022169
:10091000A04712200221A047132067E000200F21EA
:1009200098472B68102213432B603F4B01221A601B
:100930003E4A0C2017603E4A02211670364A1A6061
:10094000A0470D200221A0470F204FE000201021DA
:1009500098472B68202213432B60364B01221A60E4
:10096000354A16201760354A022116702A4A1A6045
:10097000A04717200221A04718200221A0471920D4
:1009800034E00020112198472B68402213432B604C
:100990002B4B01221A602B4A2C2017602A4A022175
:1009A00016701D4A1A60A0472D200221A0472E2054
:1009B0000221A0472F2019E00020122198472B6820
:1009C000802213432B60214B01221A60204A3020E1
:1009D0001760204A022116700F4A1A60A047312082
:1009E0000221A04714200221A04715200221A04780
:1009F000F8BDFEE795350000006CDC02D106000072
:100A000020040040002202002508000000080042E7
:100A1000040800420A0800420E000100000C0042D7
:100A2000040C00420A0C0042001000420410004274
:100A30000A10004200140042041400420A1400424A
:100A400000180042041800420A180042001C00422C
:100A5000041C00420A1C0042002807DBC10F0023CF
:100A6000092282424B415B42184000E00920704756
:100A7000F7B5051C0F1C01920024019B66B29E4233
:100A80000CDA281C064B0A219847281CB955054B3F
:100A90000A2198470134051CE4B2EEE7F7BDC046D1
:100AA0001D36000095350000F7B5141C00AF20225C
:100AB000D25D7B60E31DDB083A60DB006A46D21A38
:100AC0009546264B0E1C62B269469847786839688D
:100AD000234B6D469847062C02D9A879214B98479D
:100AE000062E02D12E20204B9847052C02D968797A
:100AF0001C4B9847052E02D12E201B4B9847042CE7
:100B000002D92879174B9847042E02D12E20164B74
:100B10009847032C02D9E878124B9847032E02D14C
:100B20002E20114B9847022C02D9A8780D4B9847DC
:100B3000022E02D12E200C4B9847012C02D9687846
:100B4000084B9847012E02D12E20074B9847002CC6
:100B500002D02878034B9847BD46F7BD710A0000C4
:100B600009260000C525000079250000F0B5002405
:100B700000292EDD045701292BD00123C3560A2555
:100B80005D43022926D00223C35664265E4303290F
:100B900021D00323C356FA27BF005F4304291BD08B
:100BA0000423C3560F4A5A439446052916D00523F9
:100BB000C3560D4A5A430023062903D00623C356C1
:100BC0000A494B43F01800194019C01960448018B5
:100BD000F0BD00250026002700239C460022131CA0
:100BE000F0E7C04610270000A086010040420F0039
:100BF000F0B58BB002AF7B61131C0733DB08B96023
:100C0000FA61DB006A463821C95DD21A954639611E
:100C10000091B968FA697B693E4E041CB047FB69D4
:100C200002AD5BB21A1C201C291C7B603A4B984712
:100C30003A4B9847FB693969013BDBB2FB60786945
:100C4000374B9847374B98473969FC68B961364B41
:100C500098470028FBD0354B9847354B1B78002B25
:100C600006D066B2A85D334B013040B29847A85514
:100C7000314B1B78002B06D066B2A85D2D4B013896
:100C800040B29847A8552D4A2D4B1178002902D122
:100C9000197800291FD01278002A01D0013CE4B253
:100CA0001B78002B01D00134E4B2FA6963B29A4296
:100CB00003DD002B02DAFC6800E00024FB693969DF
:100CC0005A18131BDBB2BB61B968013BDBB2521A85
:100CD000934200DABB611B4B1B78002B04D0281C0D
:100CE0007968194B984711E0184B1B78002B0BD1F2
:100CF000B96978690A4EB04763B2E85C144B98470B
:100D00007869B969B047A2E701204042BD4609B001
:100D1000F0BDC046A90A0000710A000021270000AA
:100D2000092600007D0600008D040000C5040000B7
:100D3000C0000020590A0000C1000020BC000020B3
:100D4000BE000020BF0000206D0B0000BD00002091
:100D5000C525000070470000094B196800290BD118
:100D6000EFF31080074A002805D172B6BFF35F8FFA
:100D700005490870012111701A6801321A60704724
:100D8000A0000020A400002000000020084B1A68EA
:100D9000013A1A601B68002B09D1064B1B78002B07
:100DA00005D0054B01221A70BFF35F8F62B6704702
:100DB000A0000020A40000200000002010B50C4B73
:100DC00002211A680A431A60196880229143094A6D
:100DD00089B29184101CC168064ACC06FBD599687B
:100DE0000020D162596891621B689BB2938410BD48
:100DF000A80000200008004010B5072829D802F0FC
:100E0000BFFB0728280404120A158020000223E0F3
:100E1000124BD86820E0124B186A124B8005800FE5
:100E2000C340181C18E00D4B186915E00B4C022349
:100E30002068184010D00A4BDB68DA06FBD523681F
:100E40005A0708D5084B00209847A3689BB258431F
:100E500002E0002000E0054810BDC046A8000020C8
:100E60000008004000127A00B5130000006CDC029C
:100E700070B50D4B45781E6A8178047801224020B8
:100E800086431540AD01301C0A402843D101802221
:100E90009043021C0A4305480321214009020240F5
:100EA0000A431A6270BDC04600080040FFFCFFFF05
:100EB000F0B5234A417885B0031C978A03919C784A
:100EC0000078009441424841597BDD781E790191B8
:100ED0001C7B80000294997B9C681A4B1C61042443
:100EE0000123A74338431E400827B8431D40F6009E
:100EF0000643A5401020009C864335431C406701F3
:100F000020202C1C84433C43029F40201F408443EC
:100F10000198BF013C4318408025C001AC43039DAC
:100F2000044307202840084D00022C400443074892
:100F30001940231C090303400B43938205B0F0BD05
:100F400000080040A8000020FFF8FFFFFFEFFFFFB0
:100F500030B5204B017A9D6942892D052D0F1E4B1E
:100F6000022D07D8F824640109022140D4B20A1CDA
:100F7000224304E089069205090C920D0A435A6047
:100F800042888188C4791143827922430A43417897
:100F9000C9010A431A600278042A19D1047BC28964
:100FA000018A022D09D8F820400524060440FF20BC
:100FB000120400040240224304E00848A40612047C
:100FC00021430240114399601A6804210A431A60C0
:100FD00030BDC04600200041A80000200000FF03F3
:100FE00008B5072821D802F0CBFA1020201B0A16DA
:100FF000041D0F4B02211A6A0A431A6210E00C4BBF
:1010000002219A690A439A610AE0094B02211A8A6D
:101010000A431A8204E0064B02219A8A0A439A8202
:10102000002003E0034B984700E0172008BDC046AE
:1010300000080040BD0D0000F0B5C223404FDB00AA
:10104000BB60404B1E215A688FB08A4304210A437B
:101050005A6009AE022333700024E0B2311C3A4DCD
:101060000134A8471C2CF8D1802205A812020023C5
:101070008260012203708370C370027103738373F3
:1010800043730322314B427098470520304CA047F0
:10109000FA682B4B9107FBD59A8A80210A430421D9
:1010A0009A823F2331702B49072200257381F381F7
:1010B000301C294B3272327331827580B580B57124
:1010C000F57175709847012601A8244B867045700C
:1010D000057098470620A047214B984702AC05238E
:1010E000301C2370211C1F4B666066726570257270
:1010F0009847301C1C498847211C281C124B26701D
:101100009847281C194B9847194B9847154A164E73
:10111000F968D0230B40D02BFAD1164B00251D7255
:101120005D729D7201236360281C0723211C2370BC
:101130006570257265729047281CB0470FB0F0BDEE
:10114000000800400040004199130000B10E00006B
:10115000E10F0000B9050000510F0000710E000002
:1011600085110000A51100004912000011130000B4
:10117000BD0D000000040040014B5878C0097047C5
:10118000000C0040054B08219A690A439A61044B00
:1011900001221A701A78D107FCD47047000400406D
:1011A000000C0040F8B50C784B782402051C061C96
:1011B0000443002B02D08023DB021C434B7A002B1C
:1011C00002D080231B031C434B68012B13D95E1EE6
:1011D0001E400222002E09D19A4202D2013652004C
:1011E000FAE7360280232E435B0303E01E028023CE
:1011F0002E439B021C430B7A002B02D080239B03BF
:101200001C430C4FB8470028FBD10B4B98470B4BA6
:101210001D70B8470028FCD1094DAE60B8470028C2
:10122000FCD16A6880235B0213401C436C60054B51
:101230009847F8BD79110000590D0000080C0040D6
:10124000000C00408D0D000038B5051C094CA0476E
:101250000028FBD1084B9847084B1D70A047002879
:10126000FCD1074B8022596852020A435A60054B51
:10127000984738BD79110000590D0000040C00405A
:10128000000C00408D0D0000F7B5061C184FB84744
:101290000028FBD1174B9847174B1E70B847002802
:1012A000FCD1164D164B6868C004C00E9847124B0F
:1012B000041C1E706B68DB02DB0F0193114B1E7068
:1012C000B8470028FCD1AD680F4B9847019B2D0A09
:1012D000ADB2002B07D1012D07D9201C291C0B4BC7
:1012E0009847041C01E00135EC40201CFEBDC046BF
:1012F00079110000590D0000040C0040000C004062
:10130000F90D0000080C00408D0D0000953500001F
:1013100010B5074B041C9847064B80221C70064BE7
:10132000D20159880A435A80044B984710BDC046E1
:10133000590D0000020C0040000C00408D0D000013
:1013400038B50F4B041C98470E4B0F4A1C700F4BBF
:10135000598858880905104058805C880C48090F46
:1013600020405880101C5C88084A6504FBD45388D0
:10137000090203400B435380064B984738BDC046D3
:10138000590D0000020C0040FFF0FFFF000C004070
:10139000FFBFFFFF8D0D000010B50C78034B24023A
:1013A00004439847024BA4B25C8010BD4113000077
:1013B000000C004010B5074B041C9847064B1C70EE
:1013C000064B5C88064B2405240F9847201C054BD0
:1013D000984710BD590D0000020C0040000C004061
:1013E0008D0D000089120000D37830B5002B1BD181
:1013F0001478802C03D0802324065B022343547886
:101400000225AC4309D19478002C02D18024A40297
:1014100001E0C024E402234341605478013C012CE4
:1014200004D8114C234001E041600023A0248DB278
:10143000E4052C431C438462D0240D0C24062C4369
:101440001C438462D478002C0CD15C0305D59378BE
:10145000012B01D1816100E041615378013B012BF7
:1014600000D8816030BDC046FFFFFBFF08B5031CFC
:101470000A1C4009D90903D10549C001401800E000
:1014800000201F210B4001219940024B984708BDC5
:1014900000440041E91300007047000008B5044B08
:1014A0009847044B9847044B9847044B984708BD0E
:1014B00039100000550D0000991400009914000027
:1014C000FEE700001148124910B5884201D0002300
:1014D00001E0104B07E0104CCA18A242F9D2C458E0
:1014E00004331460F7E70D4A191D043B934203D2FD
:1014F00000221A600B1CF6E7094A0A4B7F218A4337
:101500009A60094B9847094B9847FEE72C69000001
:10151000000000208400002080000020A80100209E
:101520000000000000ED00E0716100001D320000CD
:10153000F7B50727051C0F4C4068002100970522CE
:101540000323A0472889122603220096131C80B289
:101550000021A0476889009780B20021052204235A
:10156000A047A889009680B2002103220423A04747
:10157000F7BDC046A90A0000F7B5194C194B201C4D
:101580000727984760680323009700210522164D1E
:10159000A847431C22D06060208912260322131C16
:1015A00080B200960021A847431C17D080B220814A
:1015B0006089042380B2009700210522A847431CBC
:1015C0000CD080B26081A089042380B200960021F3
:1015D0000322A847431C01D080B2A081F7BDC046BA
:1015E0005001002031150000F10B000030B585B02E
:1015F0001B481C491C4A1D4B1D4CA0470823009347
:101600000E2203230120191C01930292194D021C82
:10161000A847194BC5B298476BB2012B08D11748A0
:101620001749184A184BA0471848194B98470FE01C
:10163000022B07D117481249124A134BA047164BE9
:101640009847D5E7032B06D102201449144B98473D
:10165000144B9847CCE7002DCAD105B030BDC04629
:101660009C620000B1620000C6620000DB62000004
:1016700059260000352E00007D060000F0620000B3
:10168000056300001A6300002F6300005001002072
:101690003115000044630000791500005963000013
:1016A00035260000BD060000F7B5051CC0880E23D6
:1016B0000F1C161C0093074C80B200210522032347
:1016C000A04728890623FAB20093311C80B2042374
:1016D000A047F7BDA90A000037B5104C0421201C13
:1016E00001220F4B9847E0880E23009380B203231A
:1016F000002105220B4DA847431C0DD080B2E0808D
:10170000208906230422009380B2131C0121A847DC
:10171000431C01D080B2208137BDC0463801002073
:10172000A9160000F10B00007FB51C481C491D4A9A
:101730001D4B1E4DA847082300930E2203230120B2
:10174000191C019302921A4C021CA047C6B2194BF5
:1017500074B29847012C0AD117481849184A194BF6
:10176000A84719480421221C184B98470FE0022C67
:1017700007D117481149124A124BA847154B9847F1
:10178000D3E7032C06D102201349144B9847144B7E
:101790009847CAE7002EC8D17FBDC0466E630000DF
:1017A00083630000C6620000DB620000592600006F
:1017B000352E00007D06000098630000AD63000038
:1017C000C2630000D763000038010020A9160000A2
:1017D000EC630000D91600005963000035260000B4
:1017E000BD06000037B5114C0421201C0122104B0E
:1017F0009847E0880E23009380B20323002105223E
:101800000C4DA8470C4B1B78002B0DD180B2E0800B
:10181000208906230422009380B2131C0121A847CB
:10182000431C01D080B2208137BDC0468801002012
:10183000A9160000F10B0000BD0000207FB51C4878
:101840001C491D4A1D4B1E4DA847082300930E221C
:1018500003230120191C019302921A4C021CA04779
:10186000C6B2194B74B29847012C0AD117481849CF
:10187000184A194BA84719480421221C184B9847AD
:101880000FE0022C07D117481749124A124BA847FC
:10189000164B9847D3E7032C06D102201449154B69
:1018A0009847154B9847CAE7002EC8D17FBDC04660
:1018B0006E63000001640000C6620000DB6200008D
:1018C00059260000352E00007D0600001664000039
:1018D0002B640000C2630000D76300008801002071
:1018E000A9160000EC630000AD630000E5170000DE
:1018F0005963000035260000BD06000037B5114CC5
:101900000521201C0122104B9847E0880E230093EC
:1019100080B20323002105220C4DA8470C4B1B78F5
:10192000002B0DD180B2E08020890623009380B285
:10193000042301210522A847431C01D080B2208145
:1019400037BDC04670010020A9160000F10B000051
:10195000BD0000207FB51C481C491D4A1D4B1E4D73
:10196000A847082300930E2203230120191C01938A
:1019700002921A4C021CA047C6B2194B74B2984787
:10198000012C0AD117481849184A194BA847194879
:101990000521221C184B98470FE0022C07D117484D
:1019A0001149124A164BA847164B9847D3E7032C08
:1019B00006D102201449154B9847154B9847CAE7A2
:1019C000002EC8D17FBDC0466E6300004064000099
:1019D000C6620000DB62000059260000352E0000C0
:1019E0007D060000556400006A640000C2630000C8
:1019F0007F64000070010020A916000094640000BC
:101A0000D7630000FD180000596300003526000070
:101A1000BD060000F0B5464B85B01C890422A4B277
:101A20000625201C131C02210095424EB047201CA5
:101A3000042203A9404B9847404B98470420291C97
:101A40003F4B98473F4B984703243F4B984700280C
:101A5000FBD03E4B98473E4B1B78002B09D066B21B
:101A600003AFB85D3B4B0130C0B2B85540B29847A8
:101A7000B855394B1B78002B09D066B203AFB85D5F
:101A8000344B0138C0B2B85540B29847B855334AC4
:101A9000334B1178002902D1197800291AD0127815
:101AA000002A01D0013CE4B21B78002B01D00134A4
:101AB000E4B263B2032B03DC002B02DA032400E060
:101AC0000024E3B20925ED1AEDB2072D02DD0A2547
:101AD000ED1AEDB2234B1B78002B04D003A8042190
:101AE000214B984722E0214B1E78F6B2002E1BD1E5
:101AF000291C0420124B984703AF63B2F85C1C4BBF
:101B000098470421381C184B98471A4B80B29847C5
:101B100004220F230093311C131C064EB0470420EF
:101B2000291C074EB04790E70120404205B0F0BDA8
:101B300004010020A90A0000710A0000212700000A
:101B4000092600007D0600008D040000C504000089
:101B5000C0000020590A0000C1000020BC00002085
:101B6000BE000020BF0000206D0B0000BD00002063
:101B7000C52500005D28000037B5164C042102225F
:101B8000201C154B98472089144B80B2984704229B
:101B90000F2300930021131C114DA847132104208B
:101BA000104B98470220104B9847E0880E23009373
:101BB00080B20323002105220C4DA847431C07D007
:101BC00080B20B4BE0809847431C01D080B220814B
:101BD00037BDC04604010020A91600005D280000A2
:101BE000A90A00000926000079250000F10B000079
:101BF000151A000030B585B025482649264A274BDE
:101C0000274CA047082300930E2203230120191C10
:101C100001930292234D021CA847234BC5B298475B
:101C20006BB2012B1DD121482149224A224BA047EA
:101C3000224C0421201C0222214B98472089214B51
:101C400080B2984704220F2300930021131C1E4CDE
:101C5000A047042013211D4B984702201C4B984796
:101C60000FE0022B07D11B481149124A124BA04723
:101C7000194B9847C0E7032B06D102201749184B90
:101C80009847184B9847B7E7002DB5D105B030BD40
:101C90006E630000A9640000C6620000DB62000001
:101CA00059260000352E00007D060000BE640000AD
:101CB0006A640000C2630000D364000004010020D5
:101CC000A91600005D280000A90A000009260000EE
:101CD00079250000E8640000791B000059630000CA
:101CE00035260000BD060000F7B50D4B0C1C151C79
:101CF00098470C4B691E1F78061C0B4B201CC9B261
:101D0000FFB29847094B2D20002F00D12B20984778
:101D10000095301C231C01210422054CA047F7BD6F
:101D2000612A00004C0100200926000079250000EE
:101D3000A90A0000F7B50524051C154E4068221CB1
:101D4000009400210223B04768890F230093221CCE
:101D500080B200210223B0472889221C80B200945F
:101D600002210323B0472889221C80B20421094B99
:101D70009847A8890E270097221C80B202210323CE
:101D8000B047A8893A1C80B20421024B9847F7BD9E
:101D9000A90A0000E91C0000F0B50B1C89B0013352
:101DA0000491DBB2041C151C05930092022105224C
:101DB000049B3F4EB047201C052206A93D4B984787
:101DC0003D4B98470498291C3C4B98473C4B9847FF
:101DD000042403953B4B98470028FBD03A4B984787
:101DE0003A4B1B78002B09D066B206AFB85D384B72
:101DF0000130C0B2B85540B29847B855354B1B7842
:101E0000002B09D066B206AFB85D314B0138C0B2C5
:101E1000B85540B29847B8552F4A304B1178002931
:101E200002D1197800291BD01278002A01D0013C78
:101E3000E4B21B78002B01D00134E4B263B2042B6E
:101E400003DC002B02DA042400E000246B1D1B1BC2
:101E5000DBB20393013BDBB2EA1C934200DA03934B
:101E60001F4B1B78002B04D006A805211D4B98475B
:101E70001BE01D4B1B78002B15D1039904980F4FC5
:101E8000B84706AE63B2F05C184B9847301C05218A
:101E9000144B9847059980B22A1C154B9847049813
:101EA0000399B84796E70120404209B0F0BDC0460B
:101EB000A90A0000710A000021270000092600007D
:101EC0007D0600008D040000C5040000C000002055
:101ED000590A0000C1000020BC000020BE00002004
:101EE000BF0000206D0B0000BD000020C5250000D4
:101EF000E91C0000F7B5174C174B201C0525984727
:101F000060680223009500212A1C144FB847431C27
:101F10001FD060602089032180B22A1C104EB04778
:101F2000431C16D080B2208160890F23009380B2B9
:101F3000022300212A1CB847431C0AD080B26081CA
:101F4000A089032180B20E22B047431C01D080B289
:101F5000A081F7BDE4000020351D0000F10B00005A
:101F6000991D0000F0B585B027482849284A294B1B
:101F7000294EB04708230424009301200E23029326
:101F8000211C021C231C254D0194A847C7B2244BD9
:101F90007DB29847012D14D1224A23492348244B6E
:101FA000B047244B24489847201C1321234EB047A8
:101FB0000220234DA847201C0A21B0470220A84731
:101FC0001BE0022D13D1174A194B1E481649B04782
:101FD000201C1321194FB847281C194EB047201C4C
:101FE0000A21B847281CB047174B9847BCE7032D78
:101FF00006D102201549164B9847164B9847B3E770
:10200000002FB1D105B0F0BDFD64000012650000E5
:1020100027650000C662000059260000352E00002A
:102020007D06000066650000516500003C6500000B
:102030007B650000351D0000E4000020092600003B
:102040007925000090650000F51E0000596300002E
:1020500035260000BD060000F7B5174C174B201CB5
:102060000525984760680223009500212A1C144F1B
:10207000B847431C1FD060602089032180B22A1C0E
:10208000104EB047431C16D080B2208160890F23C8
:10209000009380B2022300212A1CB847431C0AD0B7
:1020A00080B26081A089032180B20E22B047431C18
:1020B00001D080B2A081F7BDC8000020351D00000E
:1020C000F10B0000991D0000F0B585B027482849A4
:1020D000284A294B294EB0470823042400930120A5
:1020E0000E230293211C021C231C254D0194A8479A
:1020F000C7B2244B7DB29847012D14D1224A2349FF
:102100002348244BB047244B24489847201C1321D4
:10211000234EB0470220234DA847201C0A21B04778
:102120000220A8471BE0022D13D1174A194B1E4865
:102130001649B047201C1321194FB847281C194EC7
:10214000B047201C0A21B847281CB047174B9847B6
:10215000BCE7032D06D102201549164B9847164BB4
:102160009847B3E7002FB1D105B0F0BDA5650000D9
:102170001265000027650000C662000059260000B5
:10218000352E00007D0600006665000051650000E8
:10219000BA6500007B650000351D0000C800002006
:1021A0000926000079250000CF65000059200000B5
:1021B000E465000035260000BD060000F7B5174CA9
:1021C000174B201C052598476068022300950021C5
:1021D0002A1C144FB847431C1FD06060208903217C
:1021E00080B22A1C104EB047431C16D080B220810A
:1021F00060890F23009380B2022300212A1CB84774
:10220000431C0AD080B26081A089032180B20E22D3
:10221000B047431C01D080B2A081F7BD1C01002053
:10222000351D0000F10B0000991D0000F0B585B0D0
:1022300027482849284A294B294EB0470823042417
:10224000009301200E230293211C021C231C254D08
:102250000194A847C7B2244B7DB29847012D14D1F1
:10226000224A23492348244BB047244B244898470B
:10227000201C1321234EB0470220234DA847201CC9
:102280000A21B0470220A8471BE0022D13D1174AAC
:10229000194B1E481649B047201C1321194FB84747
:1022A000281C194EB047201C0A21B847281CB047EB
:1022B000174B9847BCE7032D06D102201549164B52
:1022C0009847164B9847B3E7002FB1D105B0F0BD42
:1022D000F96500001265000027650000C662000075
:1022E00059260000352E00007D06000066650000BE
:1022F000516500000E6600007B650000351D000082
:102300001C0100200926000079250000236600003A
:10231000BD210000E465000035260000BD06000078
:1023200010B5154B98470A201449154B9847C4B26D
:1023300060B20A2818D801F023F91B06080A0C0E0F
:102340001012141B1B000F4B0CE00F4B0AE00F4B3D
:1023500008E00F4B06E00F4B04E00F4B02E00F4B81
:1023600000E00F4B9847DEE702200E490E4B9847DE
:10237000002CD8D110BDC04631270000D461000028
:10238000F52C0000ED150000291700003D18000095
:1023900055190000F51B0000651F0000C920000052
:1023A0002D2200003866000035260000F7B5264BC8
:1023B0009847002847D0254B9847254F3B78002B5E
:1023C00041D0244B1B78002B3DD0234B1B78002B96
:1023D00039D1224B1B78002B35D1214C2378002B8F
:1023E00031D1204B1B78002B2DD11F4B98471F4E0E
:1023F0000120311C1E4DA8471E4B98473B78002BEF
:10240000FAD12378002BF7D11B4C301C1B49221C1E
:10241000231C1B4FB847082300200093011C0323F3
:102420000722184FB847431C0DD0002809D0164981
:102430000420A8470120154B98470420211CA847D9
:10244000E2E7134B9847F7BD8D040000A905000093
:10245000BD000020C0000020BE000020C100002000
:10246000BC000020BF000020412700004B66000098
:1024700035260000C5040000DB6200006066000035
:1024800059260000F10B000075660000A92B000022
:102490002123000010B5054B802464021C6002203B
:1024A000034B9847034B1C6010BDC0469844004145
:1024B0005D2B00009444004170B5061C00240B4DB8
:1024C0000021651928780A4B9847311C21410123C6
:1024D00019402878074B01349847042CEFD1052088
:1024E000054B9847054B984770BDC046C200002079
:1024F000E9060000DD0700005D2B000095240000C8
:10250000F7B56E460123073613200221144C3370B1
:10251000A047144B802252031A60134F80239B0262
:102520003B603178114D80246402C9B22C600029CF
:102530000ED002200E4B98470E4B3C601B680220C9
:102540001B03DB0F33702C60094B98473C60E8E7B6
:1025500080239B022B601320014B9847F7BDC04698
:10256000E9060000144400419844004194440041AD
:102570005D2B00002044004138B58022074B5203F8
:102580001A60074B802292021A60051C054C000954
:10259000A047281CA047044B984738BD1844004169
:1025A00094440041B92400000125000010B5041C2A
:1025B0002078002803D0024B01349847F8E710BD7B
:1025C0007925000008B53030C0B2014B984708BDEE
:1025D0007925000038B58022074B52031A60074B5B
:1025E000802292021A60051C054C0009A047281C95
:1025F000A047044B984738BD14440041944400411F
:10260000B924000001250000013808B503280DD8C1
:10261000074B00F0B5FF020406087F3104E04139A2
:1026200002E06D3900E02D39C8B2984708BDC046B8
:10263000D525000010B5064B0C1C012198472078C9
:10264000002803D0034B01349847F8E710BDC0467B
:102650000926000079250000F7B50B4D041C8020E9
:102660000F1C161C0193A847201C084CA047C02033
:10267000A847381CA0479420A847301CA047D42066
:10268000A8470198A047F7BDD5250000AD2500005B
:1026900038B50D1C07280BD80830C000C0B2054B58
:1026A00098470024285D044B01349847082CF9D141
:1026B00038BDC046D525000079250000F8B580203A
:1026C000134DA847134CFF20A047134F134E381C3F
:1026D000B0479320A847FF20A047D420A847FF2059
:1026E000A047381CB047E720A847FF20A047C020DC
:1026F000A8470020A047D320A8470020A047942047
:10270000A8470020A047A720A8470020A047F8BD61
:10271000D5250000792500008A660000AD2500005F
:1027200008B50E20014B984708BDC046D5250000CE
:1027300008B50C20014B984708BDC046D5250000C0
:1027400010B50120024CA0478020A04710BDC04614
:10275000D525000008B51320024B9847024B984737
:1027600008BDC046D52500000125000008B517208A
:10277000024B9847024B984708BDC046D52500003C
:1027800001250000F8B530202B4C0021A0472B4D2F
:1027900080235B022B6010200021A0471120002124
:1027A000A04712200021A04713200021A047142099
:1027B0000021A04700213120A047214B10221A7090
:1027C00011225A7012229A701322DA701D4B802245
:1027D00052031A6080239B022B601B4E6420B0477B
:1027E0001A4D0820A8471A4CA0471A4F0320B84793
:1027F0006420B0470320B8476420B0470320B8479F
:102800006420B0470220B8476420B0472820A8477A
:10281000A0470820A847A0470620A847A0470E20A9
:10282000A847A0470120A847A0478020A847A04765
:10283000094B9847F8BDC046E906000094440041A2
:10284000C2000020144400418D2B0000D52500005B
:1028500001250000B92400006D270000F8B50A2307
:102860005843684B98476849684B041C9847684D23
:10287000684E002839D06849201CA847674B684932
:1028800098476849071C201CA847211CA847011C21
:10289000381CB0476449071C201CA847211CA847C6
:1028A000211CA847011C381CB0476049071C201C8C
:1028B000A847211CA847211CA847211CA847011C88
:1028C000381CB0475A49071C201CA847211CA847A0
:1028D000211CA847211CA847211CA847011C381C03
:1028E000B0475449071C201C76E05349201CA847D8
:1028F0000021B0475149071C201CA847211CA847AC
:10290000011C381CB0474E49071C201CA847211C3D
:10291000A847211CA847011C381CB0474949071C7F
:10292000201CA847211CA847211CA847211CA847F8
:10293000011C381CB0474449071C201CA847211C17
:10294000A847211CA847211CA847211CA847011CF7
:10295000381CB0473D49071C201CA847211CA8472C
:10296000211CA847211CA847211CA847211CA847B7
:10297000011C381CB0473649071C201CA847211CE5
:10298000A847211CA847211CA847211CA847211C97
:10299000A847211CA847011C381CB0472D49071C1B
:1029A000201CA847211CA847211CA847211CA84778
:1029B000211CA847211CA847211CA847211CA84767
:1029C000011C381CB0472449071C201CA847211CA7
:1029D000A847211CA847211CA847211CA847211C47
:1029E000A847211CA847211CA847211CA847011C57
:1029F000381CB047FC218905B047184B984780B276
:102A0000F8BDC046754300000040A14611370000E4
:102A1000F53D0000553700008CD8453D4940000089
:102A200049CE034332EDDCB56757702EDB148BA61D
:102A3000CB44261E340A1A95047CCD3C64CBA833C3
:102A4000709C89AF453EBB29448862A38727941CAC
:102A5000CD855A958DA0AB0D6FE55F8525370000BC
:102A6000F7B5254B9847254EB0471E4B1C4A244CC2
:102A7000A0471D4A1D4B234CA047234CA047234D84
:102A80002349A847234F011C2348B847B047234B8D
:102A90009847A047011C2248B847224B2249984733
:102AA000B047134A134B214EB047A047204C002398
:102AB00001902370019800211E4B9847002806D0F2
:102AC00001232370019B802212069B180193019819
:102AD0001949A84701900198184B984780B2FEBD4C
:102AE0007B14AE47E17A843F0000000000005940AB
:102AF0009A9999999999A93F2D4400006D5F00001A
:102B0000E55300000559000011600000F53D00008C
:102B10009738723949400000FF691C3E913200002D
:102B2000DF1AC83E2D3A00009738F238CD44000035
:102B30004C010020D5360000000020412537000060
:102B400082B000230193019B012B04DCC046C046E8
:102B5000019B0133F6E702B07047000007B5019012
:102B6000019B002B05D0034B9847019B013B019330
:102B7000F6E707BD412B000008B50248024B984715
:102B800008BDC0461A0400005D2B000007B5019087
:102B9000019B002B05D0034B9847019B013B019300
:102BA000F6E707BD792B000013B56C46063420808C
:102BB0002388002B08D0FA20044B800098472388F4
:102BC000013B9BB22380F3E713BDC0468D2B000071
:102BD00010B50B4A1368111C1A8AD20BD20392B299
:102BE000002AF9D11868022420431860CC88188A7A
:102BF0001021084203D10132A242F8D3198210BD3C
:102C00009C01002000B50E208BB00021124B98478C
:102C1000124B8022D2011A60642301AA019300237F
:102C200013711374137713620D4B8021D3810D4BF5
:102C300089039160536101210B4B4942918193615A
:102C40000A490B4B0B4898470B4BC8221A800B4B79
:102C500098470BB000BDC046E9060000184400418B
:102C60001027000002000C0002000D0000100042BE
:102C7000050100009C0100200A100042D12B000039
:102C8000F8B5071C0E1C0024651CE8B20121064B98
:102C90009847E41914206043044B301898472C1EC1
:102CA000042CF1D1F8BDC04609260000AD25000076
:102CB00070B514210D4D061C0120A8470C4C202096
:102CC000A04714210220A8472020A0471421032058
:102CD000A8472020A04714210420A8472020A0476F
:102CE000301C1421A8477F20A04770BD0926000092
:102CF00079250000F7B5354F019000200091B847C5
:102D00000120334A9047334B984701240026251C65
:102D1000314B98470028FBD0304B9847304B1B78FD
:102D2000002B1BD0013D019AEBB2013CD5B25AB247
:102D3000E4B2002A04DD69B201258A4200DC1D1CD0
:102D400063B2002B3CDC002E02D10198043826E04F
:102D5000701EC0B20099C6B2B8471EE0214B1B7866
:102D6000002B22D00135019AEBB20134D5B25AB210
:102D7000E4B2002A04DD69B201258A4200DC1D1C90
:102D800063B2042B1CDD019A73B2043A701C9342A7
:102D900005D100200099B8470026012410E0C0B2F8
:102DA0000099C6B20424B8470AE00F4B1878C0B2A5
:102DB000002801D0E8B207E00C4B1B78002B03D1B0
:102DC000E0B2034B9847A3E7FEBDC046812C00004C
:102DD000B12C00007D0600008D040000C504000039
:102DE000C0000020C1000020BF000020BD00002066
:102DF00070B50D1C04A90E7805A9041C087806A955
:102E00000978022C06D0032C06D0012C07D1281CEF
:102E1000111C01E0181C311C034B984703E00220F1
:102E20000249034B984770BD09260000C7660000A1
:102E300035260000F0B58BB0079310AB1B78071C4C
:102E4000089311AB1D7812AB1B7806920993294B9E
:102E50000E1C98476B426B410322D21A0592099BC4
:102E6000089A02930092381C079BFCB20195311C12
:102E7000069A214FB847214B9847214B9847002885
:102E8000FBD0204B9847204B1B78002B07D00134F8
:102E9000E4B2059A63B293421DDD01241BE01B4B93
:102EA0001B78002B06D0013CE4B263B2002B12DC8D
:102EB000059C10E0164B1F78FFB2002F03D0154B76
:102EC0009847E0B213E0144B1B78002B03D0114B52
:102ED0009847381C0BE0089B099A00930292E0B2D5
:102EE0000195311C069A079B034FB847C5E70BB005
:102EF000F0BDC04621270000F12D00007D06000036
:102F00008D040000C5040000BC000020BE000020AD
:102F1000BF00002031270000BD00002010B50D4B80
:102F20008022196812020A431A600B4C00201621F5
:102F30000A4B984701232380094B40221A70152021
:102F40000421084B9847084B7F222380074B1A70B7
:102F500010BDC04620040040003C0042D1060000E5
:102F6000053C00422508000046030000193C0042D1
:102F700010B5084B9847084B9847084B9847084CA2
:102F800000200849A04701200749A047022007491F
:102F9000A04710BD1D2F000085270000312700002D
:102FA00091260000010000200900002011000020EF
:102FB00070B5164B9847164B9847164C09210120BF
:102FC000A047154D1548A8470A210120A047144BDA
:102FD000012098470220011CA0471248A84702215F
:102FE0000320A0471048A847104B9847104E0120D7
:102FF000B0470220011CA0470E48A8470221032029
:10300000A0470D48A8470020B04770BD55270000D5
:10301000BD26000009260000AD250000EC6200007E
:1030200079250000D9660000EC6600006D270000DD
:10303000A92B0000FF66000012670000F0B587B002
:103040006B46D8736A460023D3820720534CA047AF
:103050000028FAD0524F8025AD00524C0520524E28
:103060003D60A047062333800520504EA0474E4ABE
:10307000356013884E4CDBB202930523009302980F
:10308000002103220123A047029E464CAA2EDCD138
:103090000720424EB0470028FAD03D600520A047E7
:1030A000414A012313800520A047404B404E1D603C
:1030B0003D4D00212B883F4DDBB22B702878052336
:1030C0000093C0B203220223B0472E1C0720334DC9
:1030D000A8470028FAD0802292003A60324D05209D
:1030E000A04701232B800520A047304B802292006F
:1030F0001A602A88304BD2B21A701878032205233E
:1031000000932B4DC0B20021131CA8478025AD00B1
:103110000720224A90470028FAD03D600520A047AA
:10312000214A012313800520A047204B1E4C1D601F
:103130002288224BD2B21A7018780523C0B20093AD
:103140000021032204231A4DA84733786C46DB097B
:10315000637532787F23134033700220184B0921A6
:103160009847627D174B2D20002A00D12B209847CD
:10317000114A337812781B0213436E46F382F08AA9
:103180000A2300930021062280B20223084CA047A4
:1031900032200D4B984707B0F0BDC0460108000033
:1031A000144400415D2B00001808004218440041FF
:1031B000A90A000018010020000100206C01002075
:1031C00009260000792500008D2B000010B50C4B5E
:1031D00098470C4B98470C4B98470C4B00200C49D8
:1031E00098470C4C07200221A04723200121A0472B
:1031F00009200021A047084B802292001A6010BDD0
:1032000031040000712F0000052C00008D08000023
:1032100080841E00E90600001844004110B5114BDF
:103220009847114B9847114B9847114B9847114BB2
:10323000984714210320104CA047104B7F2098473B
:103240000120011CA0470E4B1A780E4B18780E4B2C
:10325000821819788A18D2B21A7001200B4B98473D
:10326000FBE7C0469D140000CD310000AD230000F7
:10327000B12F000041270000092600007925000039
:103280006C01002000010020180100203D300000EA
:10329000F0B5474680B48AB0041C0D1C00F058F805
:1032A000294A0023D3569046061C0F1C01330DD02B
:1032B000201C291C00F032F9002807D0201C291CF2
:1032C000204B1F4A00F0CCF9002805D1301C391CD6
:1032D0000AB004BC9046F0BD012300931B4B04943C
:1032E00005950193002308934346029403951C78A7
:1032F000002C0ED1134B124A06920793684600F039
:103300003DF900280FD0089B002B11D1069E079F86
:10331000DCE70C490A48021C0B1C01F0F9FB069083
:103320000791022CEAD102F01DFF21230360EAE796
:1033300002F018FF089C0460E8E7C046C046C0469B
:10334000000000000000000019000020A467000039
:10335000F0B55F4656464D464446F0B46C4E0D1CE3
:10336000371C83B0041C021C0B1C2F40B74200D139
:10337000ADE0002900DC8BE02F1500D194E0654D15
:1033800009038023090B5B037F190B43FE0700D55C
:1033900070E07F10C20FB8465B00002780219B18A9
:1033A0001624420000970020890345189D4204DC42
:1033B00068185B1B009D6D180095D50F5B00013CE4
:1033C0005B1952004908002CEFD180210026090624
:1033D00020250196B446894609E0834246D0D40FA1
:1033E0005B00013D1B1952004908002D1CD06646A8
:1033F0008C198342F1DD6718E60FBC46F60782465A
:103400004E452CD01B1AA24280414042019F1B1AFC
:10341000121B7F18D40F5B00013D019750461B190A
:1034200052004908002DE2D1134328D101984308E6
:10343000009D394E6A109219ED0702D580210906C8
:103440000B4340460705B9181C1C0D1C201C291CE9
:1034500003B03CBC90469946A246AB46F0BDFF0F78
:10346000FF077E427E41B2468244CBE79442C2D9F6
:10347000181CB4E7C20F5B009B18400089E7019954
:1034800001312FD0019C012323401B195B08CFE79A
:103490006B005B081A43D9D0002700292BD1C10A41
:1034A000153F40050029FAD08022520311421ED157
:1034B0000023490001331142FBD001242022E41AE9
:1034C000D21A3F19041CD4402143984057E7201CCE
:1034D000291C01F087FF221C2B1C00F0F7FF041CA5
:1034E0000D1CB3E7009A002301320092A0E72022CE
:1034F00001240023E5E7221C2B1C201C291C02F0C0
:1035000001FA021C0B1C01F003FB041C0D1C9DE7BF
:103510000000F07F01FCFFFF0000E03F0B1C011CDE
:10352000021C30B519430220002900D130BD802192
:1035300009068B4216D00D4904205C180C498C42B8
:10354000F4D90C4D5C198C42F0D90B4C5900490848
:103550000320A142EAD9074C0020A142E6D1504203
:103560005041E3E7002AE1D0EFE7C0460000F0FF5A
:10357000FFFFDF7F0000F07FFFFF0F00002070479C
:1035800002B4714649084900095C49008E4402BCF6
:103590007047C046002934D00123002210B488426D
:1035A0002CD301242407A14204D2814202D2090172
:1035B0001B01F8E7E400A14204D2814202D2490093
:1035C0005B00F8E7884201D3401A1A434C08A04236
:1035D00002D3001B5C0822438C08A04202D3001BCC
:1035E0009C082243CC08A04202D3001BDC082243E3
:1035F000002803D01B0901D00909E3E7101C10BC07
:103600007047002801D00020C04307B4024802A13F
:103610004018029003BDC046190000000029F0D0F8
:1036200003B5FFF7B9FF0EBC4243891A1847C046DD
:103630007047C0468446101C62468C46191C63467F
:1036400000E0C0461FB501F04FFE002801D4002164
:10365000C8421FBD10B501F07FFD4042013010BDD2
:1036600010B501F041FE002801DB002010BD012053
:1036700010BDC04610B501F037FE002801DD002066
:1036800010BD012010BDC04610B501F0AFFD0028EF
:1036900001DC002010BD012010BDC04610B501F0B6
:1036A000A5FD002801DA002010BD012010BDC04694
:1036B0008446081C6146FFE71FB500F04FFB002859
:1036C00001D40021C8421FBD10B500F0D5FA404218
:1036D000013010BD10B500F041FB002801DB0020D7
:1036E00010BD012010BDC04610B500F037FB00280A
:1036F00001DD002010BD012010BDC04610B500F056
:10370000E5FA002801DC002010BD012010BDC046F4
:1037100010B500F0DBFA002801DA002010BD01200E
:1037200010BDC0469E2110B5C905041CFFF7F0FF6F
:10373000002803D1201C00F0FDFD10BD9E21C9050D
:10374000201C00F081FC00F0F5FD80231B06C01852
:10375000F3E7C046F8B543024400C50F4E024800E7
:10376000240E2A1C9B09000EC90FB6098D425BD09E
:10377000221A002A00DC89E000281DD1002E00D08A
:1037800075E0580704D00F221A40042A00D00433F1
:103790008021C90419402A1C00293AD00134FF2C89
:1037A00000D17FE09B015B0A5B02E4B2E405580AAA
:1037B000D20720431043F8BDFF2CE2D08021C9047A
:1037C0000E431B2A00DD2DE1311C2020D140821A3E
:1037D0009640721E96410E439B1B5801D1D59B010A
:1037E0009F09381C02F0A0FC421F974094425BDC0A
:1037F000141B1F231B1B3A1C9F40611C3B1CCA400F
:103800005F1EBB4113430024BBE7131EB9D1002345
:103810000022DB08FF2C04D1002B43D08020C00302
:1038200003435B025B0ABFE7211A002940DD002841
:1038300023D0FF2CA5D08020C00406431B2900DD27
:10384000EEE0301C2027C840791A8E40711E8E4150
:1038500006439B19590100D493E70134FF2C55D03E
:10386000714901221A400B405B08134389E7013A72
:10387000002AB1D0FF2CA4D183E7002E00D180E72D
:1038800001390029E5D0FF2CD8D17AE7002A1BD1D5
:10389000621CD2B2012A4BDD9F1B7A0123D5F71A95
:1038A0000D1C9EE700237FE75F4BA41A3B4068E7AF
:1038B000002946D1611CC8B2012829DDFF2924D086
:1038C000F3185B080C1C5CE7002C13D0FF2818D001
:1038D0008024E404524223431B2A4DDD0123F31AC2
:1038E000041C0D1C79E7002F00D07AE7002300228A
:1038F00000248EE7002B3BD0D243002AEFD0FF28D4
:10390000EAD1331CFF240D1C3BE7FF24002380E792
:10391000002C5CD1002B00D180E0002E00D130E7DC
:103920009B19580100D42CE73F4A0124134028E793
:10393000002C15D1002B40D1002E63D0331C0D1C60
:103940001FE7002C21D1002B54D0C943002904D0FB
:10395000FF284CD01B2958DD01239B19041C79E753
:10396000002B19D1002E48D0331C0D1CFF2408E772
:10397000331C041C0D1C04E71C1C2025D440AA1A6F
:1039800093405A1E93412343A9E7FF282FD0802458
:10399000E40449422343DDE7FF24002E00D1F0E692
:1039A0008022DB08D203134204D0F608164201D16C
:1039B000331C0D1CDB00FF24E3E6002E00D1E0E603
:1039C0009A1B500100D420E7F31A0D1CD9E6002BF6
:1039D0000DD0FF24002E00D1D3E68022DB08D203D5
:1039E0001342E7D0F6081642E4D1331CE2E7331C59
:1039F000FF24C6E6331C041CC3E6802300229B047C
:103A0000FF2406E7231C002203E71C1C2027CC40D0
:103A1000791A8B40591E8B4123439EE7331CB0E635
:103A2000012616E70126D7E6FFFFFFFBF0B55F464C
:103A300056464D464446F0B446024500C00F85B098
:103A40000F1C760A2D0E804641D0FF2D26D08024F3
:103A5000240400212643F6007F3D89468B46F90F5A
:103A60007C027800640A000E00918A463CD0FF2850
:103A700034D080231B041C430023E4007F380193CF
:103A8000009F4346019A7B4049469C4611430F29BB
:103A900000D971E0764F89007F58BF46002E3ED195
:103AA0000822022391469B46D9E75A46341CC24657
:103AB00001920199022937D0032900D1CFE00129D1
:103AC00000D0ABE053460B400022002632E0002E2F
:103AD00019D10421012289469346C0E7221C531EB6
:103AE0009A4102320192CBE701270197002CC7D0FF
:103AF000201C02F019FB431F9C4076235B420021EF
:103B0000181A0191BCE7301C02F00EFB7625431F0A
:103B10009E406D4200232D1A99469B469FE70C2339
:103B2000032199468B469AE7D446012367463B40DA
:103B3000FF2200267602D205700ADB0710431843E5
:103B400005B03CBC90469946A246AB46F0BD8026E7
:103B50000023F603FF22EDE700220026EAE780209B
:103B6000C00306423BD0044239D1061C26437602EC
:103B7000760A009BFF22DDE7281A03907601640194
:103B8000A64239D3361B1A2201230120311C5B00C7
:103B90007600002901DBB44201D8361B0343013A09
:103BA000002AF3DC741EA641341C1C43039A7F32A6
:103BB000002A27DD630704D00F232340042B00D005
:103BC0000434270103D52B4B039A1C408032FE2A74
:103BD0000BDD012361460B40FF220026AAE70643C6
:103BE0007602760A4346FF22A4E7A4010123674632
:103BF000660AD2B23B409DE7039F1B22013F039719
:103C00000023C2E77E23039F5B42DB1B1B2B07DDE8
:103C1000012361460B40002200268BE7D446C5E70E
:103C2000221CDA40039B9E339C40231C5C1EA34154
:103C300013435A0704D00F221A40042A00D0043339
:103C40005F0105D5012361460B400122002671E783
:103C50009E01624601231340760A00226AE780260D
:103C6000F60326437602760A5346FF2262E7C046F1
:103C7000AC670000FFFFFFF74A02430270B55C0A21
:103C8000550A43004A001B0EC60F120EC90FFF2B28
:103C900005D0FF2A08D0012093420BD070BD01202F
:103CA000002CFBD1FF2AF6D10120002DF6D10120F6
:103CB0009342F3D1AC42F1D18E4205D0002BEDD12D
:103CC000201C441EA041E9E70020E7E74A02430226
:103CD000F0B55C0A550A43004A001B0EC60F120ECF
:103CE000C90FFF2B31D0FF2A34D0002B16D16042F0
:103CF00060418446002A14D0002820D18E4217D17A
:103D0000934215DC04DBAC4212D80020AC4212D244
:103D1000704270414042012318430CE0002AEDD16B
:103D200094466F426F416046002805D1002FE5D0D0
:103D3000704201231843F0BD0020002FFBD1484200
:103D40004841404201231843F5E7002CCBD0022024
:103D50004042F0E7002DC8D0F9E7C0464A024302CE
:103D6000F0B55C0A550A43004A001B0EC60F120E3E
:103D7000C90FFF2B27D0FF2A29D0002B10D0002AF3
:103D800015D194466F426F416046002815D000203F
:103D9000002F04D148424841404201231843F0BD5E
:103DA000604260418446002AECD00028F2D18E4265
:103DB00011D0704201231843F1E7002FF7D0704271
:103DC00001231843EBE70220002CE8D1D3E70220BF
:103DD000002DE4D1D1E79342EBDC04DBAC42E8D820
:103DE0000020AC42DBD270427041404201231843B4
:103DF000D5E7C046F0B55F4656464D464446F0B45A
:103E00004402460083B00F1C640A360EC50F002E14
:103E100041D0FF2E22D080231B0400201C43E4004D
:103E20007F3E82468046391C4B007F02C90F7F0AC5
:103E30001B0E8B463BD0FF2B34D08022120417433D
:103E4000FF007F3B00215A466A40019252460A43D6
:103E50000F2A63D87A48920082589746002C3FD1A7
:103E60000822022392469846DDE701954046022843
:103E70002AD1019A01251540FF2300246402DB05A5
:103E8000600AED071843284303B03CBC90469946AE
:103E9000A246AB46F0BD002C27D104200122824669
:103EA0009046C0E7391C4A1E91410231CBE70121FF
:103EB000002FC8D0381C02F037F9431F9F407623EB
:103EC0005B421B1A0021BEE7032800D1AEE00128A7
:103ED0004FD1019842461040C5B200230024CDE7DF
:103EE0000C2303209A4680469DE7201C02F01CF913
:103EF0007626431F9C4076420023361A9A469846FF
:103F000091E780240025E403FF23B7E75B463C1CD0
:103F100001938846AAE73C1C8846A7E7250C2404A1
:103F20003A0C240C3F04F6183F0C211C231C794347
:103F300053436F435543FB180A0C9B18B1469F42ED
:103F400002D980225202AD1809041A04090C521831
:103F500094011B0C611E8C41920EED181443AD01AF
:103F60002C43230105D5012263080120144081441C
:103F70001C434B467F33002B2DDD600704D00F22FE
:103F80002240042A00D00434220103D52D4B1C40CA
:103F90004B468033FE2B17DD019B01251D4000247D
:103FA000FF236BE78020C003044208D0074206D1FC
:103FB000041C3C436402640A5D46FF235EE704433D
:103FC0006402640AFF2359E70198A4010125640AE9
:103FD000DBB2054052E77E235B424A469B1A1B2B0D
:103FE00005DD019B01251D400024002346E7221C1E
:103FF000DA404B469E339C40231C5C1EA341134376
:10400000580704D00F221A40042A00D004335A0162
:1040100005D5019B01251D40002401232EE70198B1
:104020009C010125640A0540002327E78027FF0340
:10403000019B3C43640201251D40640AFF231DE7E8
:10404000EC670000FFFFFFF7F8B5C20F4302440022
:104050004D024800240E161C9B09000EC90FAD0925
:10406000FF2800D183E0012779408A425CD0221AE0
:10407000002A00DC8EE000281ED1002D00D07AE05E
:10408000580704D00F221A40042A00D0043380219C
:10409000C90401221940324000293AD00134FF2CD2
:1040A00000D183E09B015B0A5B02E4B2E405580A9D
:1040B000D20720431043F8BDFF2CE1D08021C90472
:1040C0000D431B2A00DD31E1291C2020D140821A3A
:1040D00095406A1E95410D435B1B5801D0D59B014D
:1040E0009F09381C02F020F8421F974094425FDC81
:1040F000141B1F231B1B3A1C9F40611C3B1CCA4006
:104100005F1EBB4113430024BAE7131EB8D100233E
:104110000022DB08FF2C04D1002B47D08020C003F5
:1041200003435B025B0ABFE7211A002944DD002834
:1041300027D0FF2CA4D08020C00405431B2900DD1C
:10414000F2E0281C2027C840791A8D40691E8D4155
:1041500005435B19590100D492E70134FF2C59D073
:10416000734901221A400B405B08134388E7002D76
:1041700000D07AE777E7013A002AADD0FF2CA0D132
:104180007EE7002D00D17BE701390029E1D0FF2C2B
:10419000D4D175E7002A1BD1621CD2B2012A4BDDB3
:1041A0005F1B7A0123D5EF1A0E1C9AE700237BE7E9
:1041B0005F4BA41A3B4063E7002946D1611CC8B29B
:1041C000012829DDFF2924D0EB185B080C1C57E7D8
:1041D000002C13D0FF2818D08024E404524223433B
:1041E0001B2A4DDD0123EB1A041C0E1C75E7002F62
:1041F00000D076E70023002200248AE7002B3BD082
:10420000D243002AEFD0FF28EAD12B1CFF240E1C3A
:1042100036E7FF2400237CE7002C5CD1002B00D183
:1042200080E0002D00D12BE75B19580100D427E76F
:104230003F4A0124134023E7002C15D1002B40D125
:10424000002D63D02B1C0E1C1AE7002C21D1002B53
:1042500054D0C943002904D0FF284CD01B2958DD75
:1042600001235B19041C75E7002B19D1002D48D0E0
:104270002B1C0E1CFF2403E72B1C041C0E1CFFE64A
:104280001C1C2026D440B21A93405A1E934123434B
:10429000A9E7FF282FD08024E40449422343DDE727
:1042A000FF24002D00D1EBE68022DB08D20313426D
:1042B00004D0ED08154201D12B1C0E1CDB00FF249D
:1042C000DEE6002D00D1DBE65A1B500100D41CE7CE
:1042D000EB1A0E1CD4E6002B0DD0FF24002D00D1CC
:1042E000CEE68022DB08D2031342E7D0ED08154268
:1042F000E4D12B1CE2E72B1CFF24C1E62B1C041C81
:10430000BEE6802300229B04FF2402E7231C002238
:10431000FFE61C1C2027CC40791A8B40591E8B418C
:1043200023439EE72B1CABE6012512E70125D3E6CC
:10433000FFFFFFFB4302590A4300C20F1B0E002080
:104340007E2B0DDD9D2B0CDC802000040143952B82
:104350000ADC9620C31AD9404842002A00D1081C22
:104360007047034BD018FBE7963B9940F4E7C046F3
:10437000FFFFFF7F70B5041E3CD0C60F00D0444243
:10438000201C01F0D1FE9E23251C1B1A962B0CDC51
:10439000083884406402640ADBB2321C6402DB0524
:1043A000600AD2071843104370BD992B0ADD05221D
:1043B000121A211CD1400A1C011C1B318D40691EA0
:1043C0008D411543052801DD421F9540164C2C40B8
:1043D0006A0704D00F221540042D00D00434610177
:1043E0000CD59F23181AFF281AD0A401640AC3B25F
:1043F000321CD3E7002200230024CFE7E408FF2B80
:1044000004D06402640ADBB2321CC7E7002C04D07B
:104410008020C00304436402640A321CFF23BDE70A
:10442000321CFF230024B9E7FFFFFFFB10B5041E79
:1044300033D001F079FE9E231B1A962B09DC083835
:1044400084406402640ADBB26402DB05600A18433C
:1044500010BD992B0ADD0522121A211CD1400A1C1D
:10446000011C1B318C40611E8C411443052801DD69
:10447000421F9440144A2240610704D00F210C408F
:10448000042C00D0043251010AD59F23181AFF28AA
:1044900016D09401640AC3B2D6E700230024D3E700
:1044A000D208FF2B03D05402640ADBB2CCE7002A07
:1044B00006D08024E40314436402640AFF23C3E7A4
:1044C000FF230024C0E7C046FFFFFFFBF8B55F46AF
:1044D000564644464D46F0B40C034D00CE0F610ADB
:1044E000440F2143C400180380465800400D824603
:1044F000D80F84464046400A530F0343D0006D0D49
:10450000371C83465246664500D1A4E0AF1A002FFF
:1045100000DC09E1002A3BD1184300D0EAE0630740
:1045200000D187E00F232340042B00D182E0221D1D
:10453000A242A4416442802309191B040B40371C8A
:10454000141C002B00D17CE0CE4B01359D4200D1E4
:1045500005E1CD4BE40819404807490204430B0B21
:10456000002000211B031A0B0B0D6D051B051343C7
:104570006A08C64DFF071D4015436D006D08291CD4
:104580003943201C3CBC90469946A246AB46F8BD38
:10459000BC488542C3D0802000040343382F00DD8F
:1045A000F0E01F2F00DD24E12020C01B1A1C8146F3
:1045B00082405846F8400243944658464A46904046
:1045C000421E9041FB40624602431F1CA21A9442C5
:1045D000A4416442C91B091B141C0B029FD549024C
:1045E0004F0A002F00D1C8E0381C01F09DFD021CCD
:1045F000083A1F2A00DDB5E02821091A201C97403F
:10460000C84007439440954200DDB2E0551B691C49
:104610001F2900DDDCE01F22551B3B1C221CAB4088
:10462000CA40AC40651EAC411343CF401C43391C0B
:10463000002574E780231B040B40371C002B00D09F
:1046400082E7904B4807E4080443C9089D4248D0DC
:1046500009030B0B84E7AA1A9446002A00DC98E0B1
:104660005046002852D08748854200D157E7802025
:10467000000403436246382A00DDFCE01F2A00DD07
:104680004AE120226046101A1A1C82408246914656
:1046900058466246D0404A460243904658465246E3
:1046A0009040421E9041424602436046C340121968
:1046B000A242A441644259180919141C080200D4EA
:1046C0002DE7704B01359D4200D122E16E4B600811
:1046D0001940012323401C1C0443CB071C434908F9
:1046E0001DE7231C0B433AD080231B030B431B0302
:1046F0001B0B35E7013F002F65D15846221A944223
:10470000A4416442C91A091B141C66E758461843A1
:1047100000D104E70122524294446046002800D0B0
:10472000C5E058460219C3E7002F73D1681C400545
:10473000400D012800DCDEE05A46A21A9442BF4137
:10474000C81A7F42C71B380200D489E05A46141B9E
:10475000A3459241591A52428F1A664641E70023F7
:104760000024FDE6271C283887400024954200DC01
:104770004CE74549AD1A3940D1E6201C01F0D4FC84
:10478000203034E75A461A43531E9A41D2B20027CA
:104790001CE7002A00D0DCE0681C4205520D012A0B
:1047A00000DC8DE0374DA84200D1F3E05D462A19C8
:1047B000A242A441644259180919CC075208144373
:1047C0004908051CABE62F48854200D0E6E6A6E680
:1047D0002B1C1F3B3A1CDA40131C20296CD03F22B3
:1047E000551BAF403C43601E84411C430021002503
:1047F00095E6381C20381A1CC240101C202F5DD0B2
:104800004022D71BBB405A461A43531E9A410243CB
:104810000027DBE6002D3BD01A4DAA4500D193E0DE
:1048200080252D047F422943382F00DDACE01F2F67
:1048300000DD29E12025ED1B081C261CA840FE40B8
:10484000AC400643651EAC413443F9405D462C1B29
:10485000A34592415B1A5242991A55466646BCE6F8
:10486000131C3B43141C002B00D0BAE60027002188
:1048700000250024E5E65A461A43531E9A41D2B257
:10488000002314E7FF070000FFFF7FFFFFFF0F80FB
:104890000D1C254358D0FF43002F51D1041BA345C5
:1048A0009241591A5242891A5546664695E69648EB
:1048B000854200D0DEE632E6002793E70023A2E738
:1048C000081C2043002D00D0C4E0002800D1F7E0F0
:1048D0005846184300D122E658460219A242A44184
:1048E000644259180919141C0A0200D417E6874BB0
:1048F0000125194013E6081C2043002D39D100285A
:1049000071D15946194303D0191C5C46664606E628
:1049100000270021002494E6604620381A1CC2407B
:1049200060469146202800D1ACE04022121A934004
:104930005A461A43531E9A414B461A430023B6E681
:10494000714DAA4500D06FE7191C5C465546664676
:10495000E5E5002D22D10D1C254377D0D543002D50
:1049600071D15C445C4592415918524289185546B0
:10497000A4E600284DD15946194300D194E0191CF2
:104980005C466646604DCAE50C43611E8C41E4B24C
:1049900000215BE7051C0021002452E65A4DAA4580
:1049A00054D05542802210040143382D00DD81E0AF
:1049B0001F2D00DD92E02022501B0A1C84468240FD
:1049C000201CE8400243904662469440601E8441A9
:1049D00042461443E9405C445C459241CB18524244
:1049E000991855466AE65846184300D197E5584647
:1049F000271ABC429241C81A5242801A020266D556
:104A00005846041BA3459241591A5242891A6646D8
:104A100085E55846184333D04807E408044380200E
:104A2000C9080003014208D0DD08054205D15946F6
:104A3000CA085C071443291C6646630FC900194362
:104A4000E400314D6BE5304A9245AED1191C5C460D
:104A5000554664E5002836D05846184310D08025C6
:104A60004807E408C9082D0304432942E5D0D808C3
:104A70002842E2D15D46EA085C071443011CDCE7EA
:104A8000214D4CE5002353E73D1C203D0A1CEA4024
:104A9000151C202F34D04026F71BB9400C43611E53
:104AA0008C412C430021D1E680210027C903164DFB
:104AB0000024C6E50C43611E8C41E4B200218AE764
:104AC000191C5C462BE5191C5C460F4D27E5031CA1
:104AD0003B4300D11CE7011C3C1C20E52020404248
:104AE00040190A1CC2409046202D0BD04020451B87
:104AF000A9400C43611E8C4145462C4300216AE7C6
:104B00000021CBE70021F4E7FF070000FFFF7FFF54
:104B1000F0B5564644465F464D46F0B41F1C0B03A5
:104B20001B0B98464B0087B0041C81465B0DC80FD9
:104B3000161C9A460090002B51D06A4B9A4531D0F2
:104B40008022414652030A43630FD2001A43664B48
:104B500090460025E20091469A44002402953B03CA
:104B60001B0B9B46FD0F7B00311C5B0D019560D03C
:104B70005C4A934254D08021584649030143720F46
:104B8000C9001143584A8B469B18F1000020009A37
:104B900004436A4003920F2C00D9ADE0534EA400A9
:104BA0003459A746404604436ED10021022508240B
:104BB000884689460295D2E7009C0298C34649463A
:104BC0000194022864D0032800D1ABE2012800D070
:104BD00038E2019A002402400025A14660E04346E5
:104BE00023434AD04046002800D1C0E101F09CFA9E
:104BF000031E272B00DDB3E128210D1A211C083BE1
:104C00004246E9409A400D1C1543221C9A40A84692
:104C10009146374B00251B1A9A46002402959EE7C1
:104C20005A4616430320002EB1D1B346002102207C
:104C3000ADE75A4632431BD05B46002B00D18AE1D8
:104C4000584601F071FA272800DD7DE12822171A65
:104C5000011C321C08395B46FA408B40171C1F436D
:104C6000331C8B40BB46191C214B1B1A00208EE7BE
:104C70000027BB460021012089E7002001250424EC
:104C80008046814602956AE703250C24029566E773
:104C9000019C0394039D01222A400024114DA1464A
:104CA000002000212403260B0C0D2405114B344356
:104CB0002D0523402B435B005B08D207191C484697
:104CC000114307B03CBC90469946A246AB46F0BDA6
:104CD0000022802424039146024DE1E700240025B0
:104CE000A146DDE7FF07000001FCFFFF2C68000084
:104CF0000DFCFFFFFFFF0F805546ED1A0495D845C8
:104D000000D953E100D14EE1049C0025013C4E4600
:104D100004944746A946584603020C0E1C43090258
:104D2000250C23041B0C0091381C291C0193FEF751
:104D300031FC019983464143381C8A46291CFEF701
:104D40006DFC330C090419438A450CD95B460919DB
:104D5000013B8C4200D947E18A4500D844E1022258
:104D60005242934409195346CB1A181C291C9846E1
:104D7000FEF710FC071C0198291C78438246404628
:104D8000FEF74CFC36040B04360C33439A4509D924
:104D90001B197A1E9C4200D924E19A4500D821E1D2
:104DA000023F1B195E4632041743380CBB46009E77
:104DB000009F51463F0C32045B1A5946BA46120C0A
:104DC0000F043F0C904651467A434F4341464143BE
:104DD00056467043CF19160CBE19B14202D980272E
:104DE0007F02C019310C12043604120C4018B61898
:104DF000834200D2C4E000D1BEE0191A4846861BA7
:104E0000B145BF417F42CF1BA74200D113E1291C0E
:104E1000381CFEF7BFFB019902904143381C8946BC
:104E2000291CFEF7FBFB330C0904194389450CD9F7
:104E3000029B0919013B8C4200D9FFE0894500D84B
:104E4000FCE0029F0919023F02974F46CF1B381C16
:104E5000291C0597FEF79EFB071C0198291C784327
:104E600081460598FEF7DAFB36040904360C0E433A
:104E7000B14509D936197B1EB44200D9E0E0B145ED
:104E800000D8DDE0023F3619029D4946761A290412
:104E900039430B0457460A0C1B0C40464546584301
:104EA00055437B437A43EB18070CDB199D4202D92B
:104EB00080256D0252191D0C00041B04000C5219B0
:104EC0001B18964235D300D1FCE001231943049E00
:104ED000994FF519002D00DCA1E0480709D00F23F8
:104EE0000B40042B05D00B1D8B42894149428B445A
:104EF000191C5A46D20107D5904B5C46049E802768
:104F00001C40FF00A346F5198D4B9D427ADD039CA2
:104F10000122224000248B4DA146C1E680242403B7
:104F2000474627424CD13C432403240B009A854D2D
:104F3000B6E63619481EB4425ED9011C9642C4D169
:104F4000009E9E42C1D1C2E7031C283B311C994000
:104F50008B46002188E6301C01F0E6F8203072E62E
:104F6000283B211C994000228846914651E6201C8E
:104F700001F0DAF820303BE60021B14500D33DE7EF
:104F8000009F5A46B944B945BF417F423F19FB18BB
:104F9000013A9C421ED2984200D97EE000D1B5E091
:104FA000191A93462AE7894500D8ADE64846464691
:104FB00042467708D3074608C0071E438146AAE643
:104FC0005846204212D1044324032A1C240B89464C
:104FD0005C4D65E6A342E3D1009F4F45DBD9211A22
:104FE00093460BE7171CDDE69B46BCE63C432403D7
:104FF000240B009A534D53E6B24259D800D18AE0AF
:10500000011C62E75F46C9087B07039E0B437C02D5
:105010006D0501229946240B6D0D324040E64A4B46
:10502000049FDB1B382B10DD039C0122224000244F
:105030000025A14634E60121494248E7029304E7EE
:105040001F1C21E7019C039441E71F2B40DC3F48D4
:10505000049F0C1C3A1858469140DC409040204375
:105060000A1C511E8A41011C11435A46DA40131C86
:10507000480709D00F220A40042A05D00A1D8A4297
:10508000894149425B18111C1A0234D5039C012244
:10509000224000240125A14602E6009F0221494248
:1050A000B9448B44B945894149420919CB18A4E652
:1050B000009D881E6900A942AD416D422C19361928
:1050C00000913AE7002B00D033E70024009437E743
:1050D0001F4A049C5D46121BD5402A1C202B1FD062
:1050E0001C4E5F46A3199F403B1C19434B1E994120
:1050F00011430023BCE75A07C9080A43039F91469E
:105100005B0201221C0B3A400025C9E54E45C4D87C
:105110009346002172E6009F9F42C9D3011C0FE70E
:105120000023E2E7802424035F463C432403240B4E
:10513000019A8946034DB3E5FF030000FFFFFFFE20
:10514000FE070000FF07000002FCFFFF1E04000036
:10515000E2FBFFFF3E040000F0B55F4656464D46B9
:105160004446F0B40D1C041C8046E80F8146180329
:105170000F03000B3F0B83B084461B480097490088
:105180005E00DF0F490D9246760DBB4681420CD082
:105190001548864210D00120B14215D003B03CBC66
:1051A00090469946A246AB46F0BD009F012027439A
:1051B000F4D10D488642EED1604602430120002A18
:1051C000ECD10120B142E9D1009B6345E6D1D04545
:1051D000E4D1D94506D00029E0D11C43201C441E4F
:1051E000A041DBE70020D9E7FF070000F0B55F46EC
:1051F00056464D464446F0B4CD0FDE0FAC461D0377
:105200002D0BB146374E0F034C00AB465D00804678
:105210003F0B640D92466D0DB44232D0314EB54213
:1052200035D0002C0ED1384341424141081C002D9D
:105230000BD0002919D1CC452DD0654668420123F9
:10524000184318E0002DF6D1281C59460A43534252
:105250005341002806D1002BEDD06346584201236C
:10526000184308E00020002B05D14A465042504127
:105270004042012318433CBC90469946A246AB46A7
:10528000F0BD3E1C0643C9D002204042F3E75E4613
:105290001643C6D0F8E7AC4207DC0BDA6146484259
:1052A0004841404201231843E5E766467042012326
:1052B0001843E0E75F450AD80ED000205F45DAD2F8
:1052C000654668426841404201231843D3E762467D
:1052D000504201231843CEE7D045F8D80020D045EE
:1052E000EED3C8E7FF070000F0B556464D464446EA
:1052F0005F46F0B40D1C83B0041C0190E80F81469A
:1053000018030F03000B3F0B8446354800974900F4
:105310005E00DF0F490D9246760DB846814234D0CB
:105320002F48864236D0002918D0002E1FD1341CB9
:1053300067463A4353425341002C1FD00020002BB4
:1053400005D142465042504140420123184303B028
:105350003CBC90469946A246AB46F0BD009804433B
:1053600060426041041C002EE2D00028E9D1C14512
:1053700015D04F46784201231843E8E7002BF6D0BA
:105380004B46584201231843E1E7009F0220274380
:10539000DDD1C5E7674602201743D8D1C3E7B14244
:1053A00004DD4A46504201231843D0E7B14207DBEF
:1053B00000986045E4D80AD0009F00206745C6D217
:1053C0004F4678427841404201231843BFE7019A93
:1053D0005245D5D8019A00205245F1D3B7E7C046CF
:1053E000FF070000F0B5564644465F464D46F0B410
:1053F0001F1C0B031B0B9A464B0087B0041C8046F6
:105400005B0DC80F161C02938146002B68D0694BB8
:105410000299994232D08022534652031A43D20055
:10542000630F1A439246644AE0008918804602914D
:10543000002400253B031B0B9B467800FB0F321C0E
:10544000400D039300D175E05A4B984269D08022F9
:10545000594652030A43730FD2001A43564B9346E0
:10546000C018F200002303994E4671401C430F2CD4
:1054700000D9A9E0514EA4003459A74653461C4315
:1054800000D087E00025AA46A84608240225D1E7D7
:105490004946022D6CD0032D00D117E2012D00D01A
:1054A00058E10D40EDB20024A9460023A04600209B
:1054B000002125030A0D1C052D0B1205404B2A4324
:1054C000134023435B004C465B08E207191C40462F
:1054D000114307B03CBC90469946A246AB46F0BD8E
:1054E0005346234350D05346002B00D184E150460D
:1054F00000F01AFE031E272B00DD76E128210D1A8D
:10550000211C083B5246E9409A400D1C1543221CC1
:105510009A40AA4690462B4B00241B1A0293002562
:1055200088E75B461E430323002E9CD1B34600222E
:10553000022398E75B46334321D05846002800D128
:105540004EE100F0F1FD272800DD42E128210F1A8D
:10555000021C311C083A5B46F94093400F1C1F4364
:10556000331C9340BB461A1C164B181A00237AE7CB
:1055700001230B4000249946A0460E4B97E70027D5
:10558000BB46002201236EE7002104248A46884698
:1055900001254FE70C2403254CE700258024A9466C
:1055A0002403A846034B82E7DA46904603991D1C64
:1055B0006FE7C046FF07000001FCFFFF6C680000BA
:1055C000FFFF0F800DFCFFFF029F160C38180490A0
:1055D0004046070C0004000C1204120C031C534339
:1055E000041C3D1C7443554398463B1C734364198B
:1055F000A44644460293230C63449D4204D9029D71
:10560000802464022D1902951D0C039545462C0437
:105610001B04240C1C1905945C46230C051C5843E0
:105620002404240C8446381C604365435F43814650
:10563000CC44280C6044BB46814502D980277F02B8
:10564000BB442D04070C2D0C000440195546BC46E4
:105650002F04E3448446280C3D0C2F1C5743B846C6
:105660002F1C77434243B94647463F0C9144BA4604
:10567000D14446434A4502D980225202B6184F46C9
:105680003A0CB6183A0447463F043F0CB8462F1C64
:1056900067435D434443584365190190380C2D1806
:1056A0004244B846AC4204D9019880235B02C0183A
:1056B0000190039C029F201C6044C0196045A441D6
:1056C00047466442A4462B043C049946240C4C44AF
:1056D000A046D8448018C246E244904292415746C0
:1056E00052429146F219E245BF417F424B46BC46C9
:1056F000D845BF41D4187F4263461F432D0C7F1904
:10570000B24292414C45AD4152426D421543019E19
:105710007D19AB19E20D5B02059F134342023A4328
:105720009A46531E9A41C30D101C1843640220432D
:1057300080465046C0010DD5454601225646049C80
:105740006B082A401A43F30701341A43760804947D
:105750009046B246049E634FF319002B61DD40462C
:1057600040070BD00F2244462240042A06D042466E
:105770000432424580414042824490465546ED0104
:1057800007D5594B5646049F80201E40C000B246A4
:105790003B18564A934200DDEAE644465546E20885
:1057A0006807104301226C025B050A408046240B07
:1057B0005B0D91467BE6DA4690461D1C69E6802427
:1057C0002403574627421CD13C432403240B484B57
:1057D0006DE6031C283B311C99408B460022C3E632
:1057E000301C00F0A1FC2030ADE6283B211C994084
:1057F00000228A4690468EE6201C00F095FC203060
:1058000078E65846204207D1044303992403240B29
:1058100089469046364B4AE63C432403240B344BDE
:1058200045E6344B049E9B1B382B06DD01230B40C1
:1058300000249946A046002339E61F2B25DC049C52
:105840002D4D46466019524644468640DC40824013
:105850005746301C2243DF40441EA04102433B1CFC
:10586000540709D00F201040042805D0101D904285
:10587000924152429B18021C1D021AD501230B4073
:1058800000249946A046012311E61C48049C554675
:10589000001BC540281C202B16D0194E5746A219B4
:1058A00097403A1C43461A43531E9A410243002331
:1058B000D6E758075B02D2081C0B01230B401043AC
:1058C000994680460023F2E50022EBE7802424037A
:1058D00050460123044319402403240B8946044BFA
:1058E000E5E5C046FF030000FFFFFFFEFE070000E6
:1058F000FF07000002FCFFFF1E040000E2FBFFFFA9
:105900003E040000F8B55F46564644464D46F0B4A6
:105910000C034D00CF0F610A440F2143C40018034C
:10592000DE0F8046B44646465800760A530F33438E
:10593000D600D14A6D0DBA46400DB346904200D113
:10594000F5E06246012672409446674500D1ABE01F
:105950002F1A002F00DC11E100283ED158461843D1
:1059600000D0F1E0600700D197E00F232340042B23
:1059700000D122E1221DA242A441644280230919E0
:105980001B04012750460B400740141C002B00D17C
:1059900079E0B94B01359D4200D10BE1B74BE408EA
:1059A00019404807490204430B0B002000211B0348
:1059B0001A0B0B0D6D051B0513436A08B04DFF074D
:1059C0001D4015436D006D08291C3943201C3CBC4B
:1059D00090469946A246AB46F8BDA7488542C1D03D
:1059E000802000040343382F00DDFDE01F2F00DD81
:1059F00031E12020C01B1A1C5E468240FE4032432B
:105A000094465A468240101C421E9041FB4062461A
:105A100002431F1CA21A9442A4416442C91B091BE1
:105A2000141C0A029ED549024F0A002F00D1D6E06D
:105A3000381C00F079FB021C083A1F2A00DDC3E085
:105A40002821231C091A9740CB401F4394409542BC
:105A500000DDC0E0551B691C1F2900DDEAE01F22A4
:105A6000551B3B1C221CAB40CA40AC40651EAC41E0
:105A70001343CF401C43391C002573E780217E4D22
:105A80000027C90300247C4B4807E4080443C908E5
:105A90009D4250D009030B0B87E780231B0401278D
:105AA00052460B40174071E72A1A9446002A00DC40
:105AB000A1E0002854D07048854200D152E78020F0
:105AC000000403436046382800DD0EE11F2800DD96
:105AD00057E162462020801A1E1C8640B1465E4671
